:060000000A128A11122809
:10000800FE00030EF0000408F1000A08F200831253
:1000180003137F08F3000A128A11DF2A0A128A11D1
:10002800152883120313B601B701B801B901BA0143
:10003800BB01BC01BD01BE01BF0183010A128A11C7
:10004800F32883120313B300293084003630A50047
:100058000408A6000A30A7002508840083130008B6
:10006800A800A50A2608840028088000A60AA70B6D
:1000780030281030F4002730F5002408F700230852
:10008800F6000A128A1149210A128A117508831288
:100098000313B2007408B1001030F4002730F500E3
:1000A8002408F7002308F6000A128A1130220A12DF
:1000B8008A11750883120313B0007408AF00E83082
:1000C800F4000330F5003008F7002F08F6000A1294
:1000D8008A1130220A128A11750883120313AE009E
:1000E8007408AD00E830F4000330F5003008F7007C
:1000F8002F08F6000A128A1149210A128A11750876
:1001080083120313B0007408AF006430F4000030A9
:10011800F5002E08F7002D08F6000A128A11302281
:100128000A128A11750883120313AC007408AB0015
:100138006430F4000030F5002E08F7002D08F600B2
:100148000A128A1149210A128A11750883120313A7
:10015800AE007408AD000A30F4000030F5002C0839
:10016800F7002B08F6000A128A1130220A128A11A7
:10017800750883120313AA007408A9000A30F40052
:100188000030F5002C08F7002B08F6000A128A1137
:1001980049210A128A11750883120313AC007408E6
:1001A800AB0006303302031CDD280530A500250806
:1001B800B3003308031908003308A5002507FE3EDD
:1001C800293E840083130008303E0A128A11BD229A
:1001D8000A128A11013083120313B302DD28831235
:1001E80003138501860187018801FF3083160313F5
:1001F800850003308600870188010A128A11C3210D
:100208000A128A110A128A11A1220A128A110A12E2
:100218008A11F3220A128A1101300A128A118721DF
:100228000A128A1140300A128A11B0220A128A115F
:1002380007300A128A1187210A128A1183120313BE
:10024800B401B5010A128A1109230A128A110A1285
:100258008A1162220A128A11750883120313B500E3
:100268007408B40005300A128A11B0220A128A11E1
:10027800831203133508A4003408A30004300A12BB
:100288008A1125200A128A11262983120313A00134
:10029800A1017408750403198229A201A20AF51B99
:1002A800612901300310F40DF50DFF3E031D562999
:1002B8000130F8007808A207532901300310A00D77
:1002C800A10DFF3E031D622975087702031D6E29E3
:1002D80074087602031C77297408F6027508031C53
:1002E800F703F702201401300310F50CF40CFF3E5D
:1002F800031D78290130A202031D61292108F50098
:100308002008F400080083120313A20022088400C6
:100318000A128A118F220A128A11003A0319080058
:10032800220884000A128A118F220A128A110A3AB4
:100338000319A829220884000A128A118F220A1296
:100348008A110D3A031DAE290A128A11EA220A12ED
:100358008A11BC2983120313220884000A128A1105
:100368008F220A128A110A128A11BD220A128A11D0
:10037800013083120313A1002108A2078A29013042
:100388000A128A11D4220A128A11623083120313C4
:10039800A1006530A000A00BCF29A10BCF293830D0
:1003A80083120313A0002008F50000300A128A11F6
:1003B800FB210A128A11063083120313A0002008B9
:1003C800F50000300A128A11FB210A128A110C303A
:1003D80083120313A0002008F50000300A128A11C6
:1003E800FB210A128A110A128A11FC220800F8005D
:1003F80078080A128A11C9220A128A1175080A1283
:100408008A1103230A128A1101300A128A11D4228E
:100418000A128A110730F7007D30F600F60B122A0F
:10042800F70B122A00300A128A11D4220A128A11F2
:100438000D30F700FB30F600F60B202AF70B202AC8
:10044800252A00300A128A11C9220A128A1100309C
:100458000A128A11032308007408750403195D2A17
:10046800F901F90AF51B442A01300310F40DF50DC2
:10047800FF3E031D392A0130F8007808F907362AAB
:1004880075087702031D4A2A74087602031C522A4B
:100498007408F6027508031CF703F702013003100D
:1004A800F50CF40CFF3E031D532A0130F902031D1D
:1004B800442A7708F5007608F4000800F801F901E5
:1004C800831203139F121F129F11A630F600F60B1A
:1004D8006B2A0000831203131F151F19712A1E08A7
:1004E800F600F7017608F700F6017608F8007708B5
:1004F800F900831603131E087807F6007908031815
:10050800790AF7007608F8007708F9007908F50005
:100518007808F400080002308A000408840A820778
:10052800003461346434633430343A340034613430
:100538006434633431343A340034831203139F1320
:100548001F13831603139F179F111F119F101F104E
:10055800831203131F10080083120313A00020083E
:100568008038F9007908F50000300A128A11FB2159
:10057800080083120313A0002008F9007908F50089
:1005880001300A128A11FB210800F400741CD02AD9
:1005980083120313061608008312031306120800B9
:1005A800F400741CDB2A83120313861608008312D6
:1005B8000313861208007308FF0072088A00710886
:1005C8008400700E8300FE0E7E0E0900C030F90014
:1005D8007908F50000300A128A11FB210800023060
:1005E800F9007908F50000300A128A11FB21080089
:1005F800F501F50A00300A128A11FB210800F400FF
:1006080074088312031388000800831203131F144D
:020618000800D8
:02400E00723FFF
:00000001FF
