:060000000A128A11122809
:10000800FE00030EF0000408F1000A08F200831253
:1000180003137F08F3000A128A114C290A128A1165
:10002800152883120313A001A101A201A301A401B1
:10003800A501A601A701A801A90183010A128A1135
:1000480025280A128A1164210A128A1183120313BD
:100058008501860187018801FF3083160313850017
:1000680003308600870188010A128A116B200A1260
:100078008A110A128A1127210A128A110A128A1170
:10008800D8200A128A111A3083120313AE005E3088
:10009800AD006D30AC00AC0B4F28AD0B4F28AE0B4C
:1000A8004F2856280A128A1100210A128A111A307A
:1000B80083120313AE005E30AD006D30AC00AC0BA4
:1000C8006328AD0B6328AE0B63286A2842280130E9
:1000D8000A128A1141210A128A116230831203130B
:1000E800AB006530AA00AA0B7728AB0B772838300D
:1000F80083120313AA002A08F50000300A128A1195
:10010800A3200A128A11063083120313AA002A08B0
:10011800F50000300A128A11A3200A128A110C3045
:1001280083120313AA002A08F50000300A128A1164
:10013800A3200A128A110A128A1157210800F8000E
:1001480078080A128A1136210A128A1175080A12C9
:100158008A115E210A128A1101300A128A1141217C
:100168000A128A110730F7007D30F600F60BBA281C
:10017800F70BBA2800300A128A1141210A128A1193
:100188000D30F700FB30F600F60BC828F70BC8282F
:10019800CD2800300A128A1136210A128A1100303D
:1001A8000A128A115E210800F601F7010030770271
:1001B80032300319760203180800831203138715D7
:1001C8000630F5003030F400F40BE828F50BE82889
:1001D80000008312031387117D30F500AB30F40063
:1001E800F40BF428F50BF428F9280130F607031866
:1001F800F70A0030F707DA28F601F701003077022E
:100208003230031976020318080083120313871586
:100218001030F5004130F400F40B1029F50B1029CB
:100228008312031387117430F5009430F400F40B33
:100238001B29F50B1B2900000130F6070318F70AE4
:100248000030F7070229831203139F171F13831621
:1002580003139F179F111F119F101F108312031361
:100268001F100800F400741C3D298312031306169E
:1002780008008312031306120800F400741C4829AE
:1002880083120313861608008312031386120800CC
:100298007308FF0072088A0071088400700E8300DA
:1002A800FE0E7E0E0900F501F50A00300A128A11C9
:1002B800A3200800F40074088312031388000800C0
:0202C80008002C
:02400E00723FFF
:00000001FF
