:060000000A128A110C280F
:10000800FE00030EF0000A08F1000A128A11AA295C
:100018000A128A110F2883120313A001A101A20159
:10002800A301A401A501A601A701A801A9018301B3
:100038000A128A111F280A128A11B5210A128A1176
:100048008501860187018801FF308316850003300A
:100058008600870188010A128A1140210A128A1132
:100068000A128A119A210A128A1101300A128A1177
:10007800D5200A128A1103108618031400300318B9
:100088000130F900FA017908AA007A08AB00AE013C
:10009800AF01031086180314003003180130F9006B
:1000A800FA017908AC007A08AD002B082D06031D6B
:1000B8005F282A082C06031999282C082D04031DEB
:1000C80099282E082F04031D7C2886150A128A11E8
:1000D80091210A128A110F300A128A11D5200A12A8
:1000E8008A110A128A1191210A128A112730872847
:1000F8002E032F04031D8C2886110A128A119121C0
:100108000A128A111B300A128A11D5200A128A1182
:100118002E082F04031D9228013093280030F9007F
:10012800FA017908AE007A08AF002D08AB002C0858
:10013800AA004D2800308A000408840A8207003487
:100148004C34413457343A342F342F3450345734E4
:100158004E34523441345A3452340034203420342A
:1001680020342034203420342034203420342034E7
:10017800203400344D346F346E34693474346F3441
:10018800723420344F344634463400344D346F349E
:100198006E34693474346F34723420344F344E34CE
:1001A8000034F800780884000A128A119E200A1286
:1001B8008A11003A03190800780884000A128A1183
:1001C8009E200A128A110A3A0319F4287808840032
:1001D8000A128A119E200A128A110D3A031DFA2862
:1001E8000A128A1191210A128A11062978088400B4
:1001F8000A128A119E200A128A110A128A1187216C
:100208000A128A110130FF007F08F807D628F60085
:1002180076080A128A1171210A128A1173080A12C1
:100228008A11B1210A128A1101300A128A117C211D
:100238000A128A110730F5007D30F400F40B2229E8
:10024800F50B222900300A128A117C210A128A1120
:100258000D30F500FB30F400F40B3029F50B302994
:10026800352900300A128A1171210A128A110030C8
:100278000A128A11B121080001300A128A117C2160
:100288000A128A116230F8006530F700F70B4A2924
:10029800F80B4A294F293830FF007F08F300003057
:1002A8000A128A110B210A128A110630FF007F08F0
:1002B800F30000300A128A110B210A128A110C303D
:1002C800FF007F08F30000300A128A110B210A127E
:1002D8008A110A128A11A3210800F200721C7829D7
:1002E800831203130616080083120313061208006C
:1002F800F200721C832983120313861608008312E6
:10030800031386120800F7007708FF007F08F30040
:1003180001300A128A110B210800C030FF007F0843
:10032800F30000300A128A110B2108000230FF0086
:100338007F08F30000300A128A110B210800F3012C
:10034800F30A00300A128A110B21080071088A008A
:10035800700E8300FE0E7E0E0900F20072088800FF
:040368000800080081
:02400E00723FFF
:00000001FF
