:060000000A128A11122809
:10000800FE00030EF0000408F1000A08F200831253
:1000180003137F08F3000A128A11E1290A128A11D0
:10002800152883160313A001A101A201A301A401AD
:10003800A501A601A701A801A90183010A128A1135
:1000480025280A128A1102220A128A11831203131E
:1000580085018601870188018901831603138501BB
:1000680003308600FF308700880189010A128A114F
:100078005E210A128A1183120313A801A901003014
:10008800AA008030AB000030AC00C030AD000030BA
:10009800AE00E030AF000030B000F030B10000300A
:1000A800B2007830B3000030B4003C30B500003006
:1000B800B6001E30B7000030B8000F30B9008030ED
:1000C800BA000730BB00C030BC000330BD00E030D0
:1000D800BE000130BF00F030C0000030C1007830F1
:1000E800C2000030C3003C30C4000030C5001E30E0
:1000F800C6000030C7000F30C8000030C900073004
:10010800CA000030CB000330CC000030CD000130F5
:10011800CE000030CF0006130A128A11EC210A1211
:100128008A1183120313E801E901003069021330D0
:10013800031968020318D6286808A5002507283E71
:10014800840083130008E600840A0008E700091108
:100158006708F5006608F40001300A128A111321B5
:100168000A128A118312031309150230831203132A
:10017800A7004530A600A930A500A50BC128A60BED
:10018800C128A70BC128013083120313E8070318FD
:10019800E90A0030E90700306902133003196802E0
:1001A800031CA0281330E8000030E900680869043F
:1001B800031911296808A5002507283E8400831320
:1001C8000008E600840A0008E70009116708F5003E
:1001D8006608F40001300A128A1113210A128A11E2
:1001E800831203130915023083120313A700453045
:1001F800A600A930A500A50BFF28A60BFF28A70B72
:10020800FF28013083120313E8020030031CE903BE
:10021800E90268086904031DDE2806178F28F6001E
:10022800F701F8017808803AFF0080307F02031D4B
:100238001F2910307702031808007608031D332998
:10024800770A83120313A0000130A1000030A20036
:1002580030290310A10DA20DA00B2D2944297703E5
:10026800FF3A0F3E83120313A000A00A0130A10039
:100278000030A20042290310A10DA20DA00B3F29B6
:1002880074082105A30075082205A4002308240486
:1002980003195229831203130514552983120313D2
:1002A8000510891489100130F7070318F80A00307F
:1002B800F807162901300A128A11D6210A128A1162
:1002C800623083120313A1006530A000A00B6A29D5
:1002D800A10B6A29383083120313A0002008F50007
:1002E80000300A128A1196210A128A1106308312E6
:1002F8000313A0002008F50000300A128A11962185
:100308000A128A110C3083120313A0002008F5008A
:1003180000300A128A1196210A128A110A128A11C9
:10032800F5210800F80078080A128A11CB210A1270
:100338008A1175080A128A11FC210A128A110130E1
:100348000A128A11D6210A128A110730F7007D3065
:10035800F600F60BAD29F70BAD2900300A128A1109
:10036800D6210A128A110D30F700FB30F600F60B81
:10037800BB29F70BBB29C02900300A128A11CB21EF
:100388000A128A1100300A128A11FC210800F400AE
:10039800741CD22983120313061608008312031350
:1003A80006120800F400741CDD2983120313861654
:1003B800080083120313861208007308FF007208EE
:1003C8008A0071088400700E8300FE0E7E0E0900FC
:1003D8000230F9007908F50000300A128A119621D6
:1003E8000800F501F50A00300A128A119621080062
:0E03F800F40074088312031388000800080044
:02400E00723FFF
:00000001FF
