:060000000A128A11122809
:10000800FE00030E83120313D4000408D5000A0867
:10001800D6007F08D7000A128A112A280A128A11E4
:1000280015280A128A11E0230A128A11FD00831387
:100038002030840046300A128A11C523F901FA01DA
:10004800FB01FC0183010A128A11192B0B1D992946
:100058000130BA07003003180130BB07003003181D
:100068000130BC07003003180130BD070130C0075C
:100078000318C10A0030C1070310861803140030A2
:1000880003180130CC00CD014C08FB004D08FC00E2
:100098007B087C04031D93287D03031D93283A08DD
:1000A800CC003B08CD003C08CE003D08CF002A0913
:1000B800D0002B09D1002C09D2002D09D300D00A79
:1000C8000319D10A0319D20A0319D30A5008CC0715
:1000D80051080318510F71287228CD0752080318C8
:1000E800520F77287828CE0753080318530ACF07EA
:1000F8004F08031D8B284E08031D8B284D08031D30
:100108008B28C9304C02031D8928031C93283D08FD
:10011800AD003C08AC003B08AB003A08AA003A081E
:10012800CC003B08CD003C08CE003D08CF002A0992
:10013800D0002B09D1002C09D2002D09D300D00AF8
:100148000319D10A0319D20A0319D30A5008CC0794
:1001580051080318510FB128B228CD0752080318C7
:10016800520FB728B828CE0753080318530ACF07E9
:100178004F08B9004E08B8004D08B7004C08B60043
:100188000030F3000030F2000330F100E830F000F6
:100198003908F7003808F6003708F5003608F40083
:1001A8000A128A11A4210A128A11730883120313EE
:1001B800B5007208B4007108B3007008B200B91B2A
:1001C80035293908031DF4283808031DF428370891
:1001D800031DF42833303602031DF228031C352989
:1001E8007B037C04031D35297D08031D3529B51BB8
:1001F8000C293508031D20293408031D202933083C
:10020800031D202901303202031D0A290318202961
:100218000130BE070318BF0A0030BF070A128A114F
:10022800CD230A128A110330831203133E063F04BA
:10023800031D2029BE01BF01B51B35293508031D43
:1002480031293408031D31293308031D31290130B0
:100258003202031D2F29031C35290130F900003013
:10026800FA007B08CC004C08FD003508B1003408C2
:10027800B0003308AF003208AE0001304102F5305B
:100288000319400203188329992900300A128A1198
:1002980088230A128A110B300A128A11AE220A1216
:1002A8008A1179037A04031D952940306C2900309E
:1002B8000A128A1188230A128A1111300A128A1125
:1002C800AE220A128A1179037A04031D9529803017
:1002D800831203138606802900300A128A118823A4
:1002E8000A128A1101300A128A11AE220A128A11E0
:1002F80079037A04031D9529F901FA0195298312D6
:1003080003133F08003A03198A2995293E08003A41
:1003180003194929013A03195B29033A031970297A
:10032800952983120313C001C1015708FF0056081D
:100338008A0055088400540E8300FE0E7E0E0900C4
:1003480083120313C701F31FB629F009F109F20953
:10035800F309F00A0319F10A0319F20A0319F30A57
:10036800C701C70AF71FC729F409F509F609F709EC
:10037800F40A0319F50A0319F60A0319F70A0130F2
:10038800F8007808C7060030CB000030CA000030FB
:10039800C9000030C800730872047104700403199E
:1003A8001C2AC601C60AF31BE7290130F80003100E
:1003B800F00DF10DF20DF30DF80BDB290130F8000B
:1003C8007808C607D7290130F8000310C80DC90DF1
:1003D800CA0DCB0DF80BE92973087702031DFE2916
:1003E80072087602031DFE2971087502031DFE2995
:1003F80070087402031C0F2A7008F4027108031CA9
:10040800710FF5027208031C720FF6027308031CC1
:10041800730FF702481401300310F30CF20CF10CBF
:10042800F00CFF3E031D102A0130C602031DE72908
:10043800470803192A2AC809C909CA09CB09C80AD9
:100448000319C90A0319CA0A0319CB0A4B08F3008E
:100458004A08F2004908F1004808F0000800013095
:100468000A128A117B230A128A1162308316031337
:10047800A1006530A000A00B3F2AA10B3F2A38300D
:1004880083160313A000200883120313D900003039
:100498000A128A1171220A128A110630831603136E
:1004A800A000200883120313D90000300A128A1111
:1004B80071220A128A110C3083160313A000200837
:1004C80083120313D90000300A128A1171220A120A
:1004D8008A110A128A11B323080083120313DC005D
:1004E8005C080A128A116E230A128A1183120313F6
:1004F80059080A128A11D4230A128A1101300A12E1
:100508008A117B230A128A11073083120313DB0036
:100518007C30DA00DA0B8E2ADB0B8E2A00000030E2
:100528000A128A117B230A128A110D3083120313CF
:10053800DB00FB30DA00DA0B9F2ADB0B9F2A003046
:100548000A128A116E230A128A1100300A128A11BD
:10055800D4230800F800780884000A128A1143237B
:100568000A128A11003A03190800780884000A124E
:100578008A1143230A128A110A3A0319CD2A7808E4
:1005880084000A128A1143230A128A110D3A031DA4
:10059800D32A0A128A11BC230A128A11DF2A780880
:1005A80084000A128A1143230A128A110A128A1134
:1005B800A9230A128A110130F7007708F807AF2A31
:1005C800F40074080A128A1193230A128A11710816
:1005D8000A128A11DA230A128A1101300A128A11C0
:1005E8009E230A128A110730F3007D30F200F20BC5
:1005F800FB2AF30BFB2A00300A128A119E230A12E7
:100608008A110D30F300FB30F200F20B092BF30BCB
:10061800092B0E2B00300A128A1193230A128A1111
:1006280000300A128A11DA2308000A128A11E1231B
:100638000A128A1183120313850186018701880132
:10064800FF30831603138500033086008701880175
:100658000A128A1133220A128A110A128A115F2396
:100668000A128A110430831603138100643083123E
:10067800031381000B168B168B170B17422B0330B5
:100688008A000408840A820700344C3461347334C5
:10069800743420346D3465346E34753400344C341D
:1006A800453444342034313400344C3445344434F3
:1006B800203432340034831203139F171F13831618
:1006C80003139F179F111F119F101F1083120313ED
:1006D8001F10080083120313D800581C772B8312AD
:1006E8000313061608008312031306120800831268
:1006F8000313D800581C842B831203138616080092
:100708008312031386120800F60076088038F50075
:100718007508F10000300A128A11E4220800F0007E
:10072800701C9A2B831203130616080083120313F6
:1007380006120800F000701CA52B831203138616FE
:1007480008008312031386120800F6007608F500E5
:100758007508F10001300A128A11E4220800831298
:100768000313D901D90A00300A128A11712208002C
:10077800C030F5007508F10000300A128A11E42231
:10078800080064008001840A040603190034040682
:10079800C62BF101F10A00300A128A11E42208007E
:1007A80083120313D800580888000800F000700866
:0C07B800831203138800080001340800BD
:02400E00723FFF
:00000001FF
