:060000000A128A11122809
:10000800FE00030EF0000408F1000A08F200831253
:1000180003137F08F3000A128A11C82C0A128A11E6
:10002800152883120313C201C301C401C501C60107
:10003800C701C801C901CA01CB0183010A128A118B
:100048009F29831203132E08B2002F08B30030082B
:10005800B4003108B50006300310B20DB30DB40D6D
:10006800B50DFF3E031D30283508A3003408A20053
:100078003308A1003208A0000030B6002D30B700C8
:100088003130B8000130B9002E08BA002F08BB0083
:100098003008BC003108BD0006300310BA0DBB0D96
:1000A800BC0DBD0DFF3E031D5128BA09BB09BC0993
:1000B800BD09BA0A0319BB0A0319BC0A0319BD0A08
:1000C8003A08B6073B0803183B0F6B286C28B7079C
:1000D8003C0803183C0F71287228B8073D0803181C
:1000E8003D0AB9073908A7003808A6003708A5004F
:1000F8003608A4000A128A1110210A128A118312E2
:1001080003132108F6002008F500013076020030BC
:1001180003197502031CF5282E08B2002F08B30036
:100128003008B4003108B50004300310B20DB30D27
:10013800B40DB50DFF3E031D99283508A3003408FA
:10014800A2003308A1003208A0000030B6002D300C
:10015800B7003130B8000130B9002E08BA002F08B6
:10016800BB003008BC003108BD0004300310BA0DD4
:10017800BB0DBC0DBD0DFF3E031DBA28BA09BB0956
:10018800BC09BD09BA0A0319BB0A0319BC0A031939
:10019800BD0A3A08B6073B0803183B0FD428D528F0
:1001A800B7073C0803183C0FDA28DB28B8073D08D6
:1001B80003183D0AB9073908A7003808A600370808
:1001C800A5003608A4000A128A1110210A128A1101
:1001D800831203132108F6002008F5008316031381
:1001E800181501307602003003197502031808004B
:1001F800831603138C1675089900181283120313BB
:1002080098178316031387170717831203131816F3
:10021800831603139816080083120313A901A31F5A
:100228002229A009A109A209A309A00A0319A10A60
:100238000319A20A0319A30AA901A90AA71F3329A6
:10024800A409A509A609A709A40A0319A50A031957
:10025800A60A0319A70A0130F4007408A906003099
:10026800AD000030AC000030AB000030AA0023081D
:1002780022042104200403198829A801A80AA31B21
:1002880053290130F4000310A00DA10DA20DA30DF8
:10029800F40B47290130F4007408A80743290130FA
:1002A800F4000310AA0DAB0DAC0DAD0DF40B5529E0
:1002B80023082702031D6A2922082602031D6A292A
:1002C80021082502031D6A2920082402031C7B2912
:1002D8002008A4022108031C210FA5022208031CE0
:1002E800220FA6022308031C230FA7022A14013099
:1002F8000310A30CA20CA10CA00CFF3E031D7C292B
:100308000130A802031D5329290803199629AA09AF
:10031800AB09AC09AD09AA0A0319AB0A0319AC0A5F
:100328000319AD0A2D08A3002C08A2002B08A10070
:100338002A08A00008000A128A1107250A128A1141
:10034800831203138501860187018801FF30831614
:100358000313850003308600870188010A128A1179
:10036800BC230A128A110A128A11A3240A128A11BA
:10037800003083120313AB000130AA008630A900B5
:10038800A030A8000A128A11F4230A128A11003038
:1003980083120313B1000030B0002530AF00803065
:1003A800AE000A128A1125200A128A1101300A1297
:1003B8008A1160230A128A1183120313C001C10132
:1003C8004108803AFF0082307F02031DED2900308A
:1003D80040020318202A831203134108A100400891
:1003E800A0000A128A1121220A128A118312031309
:1003F8002008BE003E08BF003F08031D072A003042
:10040800C0000230C1003F080A128A11DC240A1217
:100418008A11013083120313C0070318C10A003080
:10042800C1074108803AFF0082307F02031D1E2A5F
:1004380000304002031CEF29202A83120313A7016E
:1004480001302102003003192002031C382A02302F
:1004580021020030031920020318382AA230A20012
:100468002208A500A330442A0130210200300319D4
:10047800200203184B2AA030A2002208A500A130B0
:10048800A2002208A6002008A2002208A7000A123B
:100498008A11F3240A128A11831203132508A20071
:1004A800A3012208F4002308F5000A128A11E424A3
:1004B8000A128A11831203132708A200A301220833
:1004C800F4002308F5000A128A11E4240A128A119A
:1004D8000A128A11EC240A128A110A128A11F324C8
:1004E8000A128A11831203132608A200A301220804
:1004F800F4002308F5000A128A11E4240A128A116A
:100508000030F400F5000A128A1161240A128A11D7
:10051800740883120313A2002208A4000A128A1185
:10052800EC24831203132408A200A3012208A000CC
:100538002308A100080083120313A30101307702E6
:10054800003003197602031CB22A02307702003009
:10055800031976020318B22AA230BA2A01307702A8
:100568000030031976020318C12AA030A000200821
:10057800A2007608A0002008A3000A128A11F3241A
:100588000A128A11831203132208A000A10120086D
:10059800F4002108F5000A128A11E4240A128A11CB
:1005A800831203132308A000A1012008F4002108E6
:1005B800F5000A128A11E4240A128A1178088312B3
:1005C8000313A000A1012008F4002108F5000A1275
:1005D8008A11E4240A128A110A128A11EC240A12D6
:1005E8008A11143083120313A1007930A000A00BE4
:1005F800FB2AA10BFB2A08000030F8000030F700A6
:100608000030F6000030F50083120313230822049B
:10061800210420040319572BF901F90AA31B222BE3
:100628000130F4000310A00DA10DA20DA30DF40BD1
:10063800162B0130F4007408F907122B0130F4006E
:100648000310F50DF60DF70DF80DF40B242B230808
:100658002702031D392B22082602031D392B2108E6
:100668002502031D392B20082402031C4A2B2008CD
:10067800A4022108031C210FA5022208031C220F33
:10068800A6022308031C230FA702751401300310C8
:10069800A30CA20CA10CA00CFF3E031D4B2B013098
:1006A800F902031D222B7808A3007708A200760818
:1006B800A1007508A000080083120313A400A50177
:1006C800A601240884000A128A118D240A128A11AC
:1006D800003A03198F2B2608F7002508F60024088E
:1006E80084000A128A118D240A128A11F9007908E5
:1006F800F8000A128A119F220A128A110130F900A1
:10070800790883120313A4070130A5070318A60A62
:100718000030A607652B2608803AFF0082307F024A
:10072800031D982B003025020318080083120313B9
:100738002608803AFF0082307F02031DA52B003077
:10074800250203180800831203132608F70025085A
:10075800F600F8010A128A119F220A128A11013042
:1007680083120313A5070318A60A0030A6079C2BBB
:1007780001300A128A11BD240A128A1162308312CA
:100788000313A1006530A000A00BC82BA10BC82B38
:10079800383083120313A0002008F50000300A1235
:1007A8008A112C240A128A11063083120313A0001E
:1007B8002008F50000300A128A112C240A128A1126
:1007C8000C3083120313A0002008F50000300A1231
:1007D8008A112C240A128A110A128A11FA24080092
:1007E8002830831203139400831603139101831294
:1007F80003132808AC002908AD002A08AE002B080E
:10080800AF0002300310AC0DAD0DAE0DAF0DFF3EC5
:10081800031D062C2F08A3002E08A2002D08A100F6
:100828002C08A0000130A7003130A6002D30A5000B
:100838000030A4000A128A1100238312031320082F
:10084800FF3E8316031393009401871507160800CB
:10085800F80078080A128A11B2240A128A11750857
:100868000A128A1101250A128A1101300A128A1104
:10087800BD240A128A110730F7007D30F600F60B06
:10088800432CF70B432C00300A128A11BD240A129C
:100898008A110D30F700FB30F600F60B512CF70BE0
:1008A800512C562C00300A128A11B2240A128A11CD
:1008B80000300A128A11012508000A128A11D3246D
:1008C8000A128A118316031391150A128A11D32466
:1008D8000A128A11831203131308F600F701760827
:1008E800F8007708F9000A128A11D3240A128A112B
:1008F80074087504031D842C831603139116872C22
:1009080083160313911211167908F5007808F4007C
:10091800080004308A000408840A8207003453342B
:1009280068346F3475346C3464342034623465341C
:10093800203465346D34703474347934003483125F
:1009480003139F171F13831603139F179F111F115C
:100958009F101F10831203131F100800F400741C4B
:10096800B92C831203130616080083120313061208
:100978000800F400741CC42C8312031386160800A4
:1009880083120313861208007308FF0072088A0096
:1009980071088400700E8300FE0E7E0E0900831617
:1009A80003131419D32C11081F3903190800D32C69
:1009B800F400831203130C1EDD2C74089900080040
:1009C8000A128A11D32474088312031393000800AF
:1009D8000A128A11D32483160313111508000A1268
:1009E8008A11D3248316031311140800F501F50A9C
:1009F80000300A128A112C240800F40074088312AB
:080A0800031388000800080038
:02400E00723FFF
:00000001FF
