:060000000A128A11122809
:10000800FE00030EF0000408F1000A08F200831253
:1000180003137F08F3000A128A116D2B0A128A1142
:10002800152883120313B601B701B801B901BA0143
:10003800BB01BC01BD01BE01BF0183010A128A11C7
:1000480025280A128A118E230A128A118312031391
:1000580085018601870188018901FF308316031312
:10006800850003308600FF30870088010F30890043
:100078000A128A119F220A128A110A128A117823F7
:100088000A128A110310831203130919031400308A
:1000980003180130B400B5013408A3003508A400E2
:1000A80001300A128A1193210A128A1140300A1269
:1000B8008A113E230A128A110310831203130719A7
:1000C8000314003003180130B400B5013408A3004C
:1000D8003508A40001300A128A1193210A128A11E4
:1000E80041300A128A113E230A128A110310831220
:1000F800031387190314003003180130B400B50145
:100108003408A3003508A40001300A128A1193218B
:100118000A128A1142300A128A113E230A128A11DF
:10012800031083120313871B0314003003180130D4
:10013800B400B5013408A3003508A40001300A1240
:100148008A1193210A128A1143300A128A113E2316
:100158000A128A11031083120313071B03140030B9
:1001680003180130B400B5013408A3003508A40011
:1001780001300A128A1193210A128A1144300A1294
:100188008A113E230A128A11031083120313871A55
:100198000314003003180130B400B5013408A3007B
:1001A8003508A40001300A128A1193210A128A1113
:1001B80045300A128A113E230A128A11031083124B
:1001C8000313071A0314003003180130B400B501F3
:1001D8003408A3003508A40001300A128A119321BB
:1001E8000A128A1146300A128A113E230A128A110B
:1001F800031083120313851A031400300318013007
:10020800B400B5013408A3003508A40001300A126F
:100218008A1193210A128A1147300A128A113E2341
:100228000A128A11031083120313051A03140030EB
:1002380003180130B400B5013408A3003508A40040
:1002480001300A128A1193210A128A1148300A12BF
:100258008A113E230A128A11031083120313851987
:100268000314003003180130B400B5013408A300AA
:100278003508A40001300A128A1193210A128A1142
:1002880049300A128A113E230A128A110310831276
:10029800031305190314003003180130B400B50125
:1002A8003408A3003508A40001300A128A119321EA
:1002B8000A128A1150300A128A113E230A128A1130
:1002C8000310831203138518031400300318013038
:1002D800B400B5013408A3003508A40001300A129F
:1002E8008A1193210A128A1151300A128A113E2367
:1002F8000A128A110310831203130518031400301D
:1003080003180130B400B5013408A3003508A4006F
:1003180001300A128A1193210A128A114128831284
:100328000313B300293084003630A5000408A60062
:100338000A30A7002508840083130008A800A50A2E
:100348002608840028088000A60AA70B9E291030DA
:10035800F4002730F5002408F7002308F6000A12F5
:100368008A1161220A128A11750883120313B200D6
:100378007408B1001030F4002730F5002408F700A5
:100388002308F6000A128A110C230A128A1175082A
:1003980083120313B0007408AF00E830F400033090
:1003A800F5003008F7002F08F6000A128A110C230E
:1003B8000A128A11750883120313AE007408AD007F
:1003C800E830F4000330F5003008F7002F08F60095
:1003D8000A128A1161220A128A11750883120313FC
:1003E800B0007408AF006430F4000030F5002E0847
:1003F800F7002D08F6000A128A110C230A128A1136
:10040800750883120313AC007408AB006430F40061
:100418000030F5002E08F7002D08F6000A128A11A0
:1004280061220A128A11750883120313AE00740838
:10043800AD000A30F4000030F5002C08F7002B0856
:10044800F6000A128A110C230A128A1175088312FF
:100458000313AA007408A9000A30F4000030F5005C
:100468002C08F7002B08F6000A128A1161220A12DA
:100478008A11750883120313AC007408AB000630A8
:100488003302031C4B2A0530A5002508B3003308A6
:10049800031908003308A5002507FE3E293E8400FD
:1004A80083130008303E0A128A114B230A128A115C
:1004B800013083120313B3024B2A83120313A001E2
:1004C800A1017408750403199A2AA201A20AF51B4E
:1004D800792A01300310F40DF50DFF3E031D6E2A35
:1004E8000130F8007808A2076B2A01300310A00D2C
:1004F800A10DFF3E031D7A2A75087702031D862A7F
:1005080074087602031C8F2A7408F6027508031C07
:10051800F703F702201401300310F50CF40CFF3E2A
:10052800031D902A0130A202031D792A2108F50033
:100538002008F400080001300A128A1162230A1206
:100548008A11623083120313A1006530A000A00B4A
:10055800AB2AA10BAB2A383083120313A000200862
:10056800F50000300A128A11D7220A128A110630C1
:1005780083120313A0002008F50000300A128A1124
:10058800D7220A128A110C3083120313A000200804
:10059800F50000300A128A11D7220A128A110A12AB
:1005A8008A1181230800F80078080A128A11572353
:1005B8000A128A1175080A128A1188230A128A11E6
:1005C80001300A128A1162230A128A110730F700D1
:1005D8007D30F600F60BEE2AF70BEE2A00300A12F1
:1005E8008A1162230A128A110D30F700FB30F600D7
:1005F800F60BFC2AF70BFC2A012B00300A128A1191
:1006080057230A128A1100300A128A118823080017
:10061800740875040319392BF901F90AF51B202B05
:1006280001300310F40DF50DFF3E031D152B0130AD
:10063800F8007808F907122B75087702031D262B96
:1006480074087602031C2E2B7408F6027508031C26
:10065800F703F70201300310F50CF40CFF3E031DFD
:100668002F2B0130F902031D202B7708F50076089F
:10067800F400080083120313A00020088038F90052
:100688007908F50000300A128A11D722080083126F
:100698000313A0002008F9007908F50001300A12B8
:1006A8008A11D7220800F400741C5E2B83120313EE
:1006B800061608008312031306120800F400741CBF
:1006C800692B8312031386160800831203138612FC
:1006D80008007308FF0072088A0071088400700E11
:1006E8008300FE0E7E0E09000230F9007908F5003D
:1006F80000300A128A11D7220800F501F50A0030E5
:100708000A128A11D7220800F4007408831203130E
:0607180088000800080043
:02400E00723FFF
:00000001FF
