:060000000A128A11122809
:10000800FE00030EF0000408F1000A08F200831253
:1000180003137F08F3000A128A11FE2B0A128A11B1
:10002800152883120313B801B901BA01BB01BC0139
:10003800BD01BE01BF01C001C10183010A128A11BD
:1000480025280A128A113E240A128A1183120313E0
:100058008501860187018801FF3083160313850017
:1000680003308600870188010A128A11BB220A120E
:100078008A11003083120313AB000630AA001A302D
:10008800A9008030A8000A128A11F3220A128A11E4
:1000980000300A128A11CF230A128A1101300A127B
:1000A8008A117F220A128A110A128A1131240A122D
:1000B8008A113030F4000030F5000A128A111B242E
:1000C8000A128A110130F4000030F5000A128A1170
:1000D8001B240A128A110A128A112A240A128A1166
:1000E8000A128A1131240A128A113130F4000030C0
:1000F800F5000A128A111B240A128A110030F40032
:10010800F5000A128A1192230A128A1175088312BD
:100118000313B5007408B4000A128A112A240A12BB
:100128008A110A128A1131240A128A113030F40015
:100138000030F5000A128A111B240A128A110230B3
:10014800F4000030F5000A128A111B240A128A11E1
:100158000A128A112A240A128A110A128A113124CF
:100168000A128A113130F4000030F5000A128A119F
:100178001B240A128A110030F400F5000A128A11B1
:1001880092230A128A11750883120313B7007408A0
:10019800B6000A128A112A240A128A1140300A1259
:1001A8008A11CF230A128A11831203133508A40077
:1001B8003408A30003300A128A1113210A128A1183
:1001C80045300A128A11CF230A128A1183120313A7
:1001D8003708A4003608A30003300A128A11132135
:1001E8000A128A110A128A1131240A128A1130302D
:1001F800F4000030F5000A128A111B240A128A1131
:100208000330F4000030F5000A128A111B240A1288
:100218008A110A128A112A240A128A11582883126A
:100228000313B300293084003830A5000408A60061
:100238000A30A7002508840083130008A800A50A2F
:100248002608840028088000A60AA70B1E2910305B
:10025800F4002730F5002408F7002308F6000A12F6
:100268008A1141220A128A11750883120313B200F7
:100278007408B1001030F4002730F5002408F700A6
:100288002308F6000A128A1160230A128A117508D7
:1002980083120313B0007408AF00E830F400033091
:1002A800F5003008F7002F08F6000A128A116023BB
:1002B8000A128A11750883120313AE007408AD0080
:1002C800E830F4000330F5003008F7002F08F60096
:1002D8000A128A1141220A128A117508831203131D
:1002E800B0007408AF006430F4000030F5002E0848
:1002F800F7002D08F6000A128A1160230A128A11E3
:10030800750883120313AC007408AB006430F40062
:100318000030F5002E08F7002D08F6000A128A11A1
:1003280041220A128A11750883120313AE00740859
:10033800AD000A30F4000030F5002C08F7002B0857
:10034800F6000A128A1160230A128A1175088312AC
:100358000313AA007408A9000A30F4000030F5005D
:100368002C08F7002B08F6000A128A1141220A12FB
:100378008A11750883120313AC007408AB000630A9
:100388003302031CCB290530A5002508B300330828
:10039800031908003308A5002507FE3E293E8400FE
:1003A80083130008303E0A128A11DC230A128A11CC
:1003B800013083120313B302CB290030F800003058
:1003C800F7000030F6000030F5008312031323080D
:1003D8002204210420040319382AF901F90AA31B6D
:1003E800032A0130F4000310A00DA10DA20DA30DE6
:1003F800F40BF7290130F4007408F907F3290130E8
:10040800F4000310F50DF60DF70DF80DF40B052AA1
:1004180023082702031D1A2A22082602031D1A2A66
:1004280021082502031D1A2A20082402031C2B2A4E
:100438002008A4022108031C210FA5022208031C7E
:10044800220FA6022308031C230FA70275140130EC
:100458000310A30CA20CA10CA00CFF3E031D2C2A18
:100468000130F902031D032A7808A3007708A200C7
:100478007608A1007508A000080083120313A001E4
:10048800A1017408750403197A2AA201A20AF51BAE
:10049800592A01300310F40DF50DFF3E031D4E2AB5
:1004A8000130F8007808A2074B2A01300310A00D8C
:1004B800A10DFF3E031D5A2A75087702031D662AFF
:1004C80074087602031C6F2A7408F6027508031C68
:1004D800F703F702201401300310F50CF40CFF3E6B
:1004E800031D702A0130A202031D592A2108F500B4
:1004F8002008F400080083120313A20022088400D5
:100508000A128A11BE230A128A11003A0319080036
:10051800220884000A128A11BE230A128A110A3A92
:100528000319A02A220884000A128A11BE230A127B
:100538008A110D3A031DA62A0A128A1109240A12E1
:100548008A11B42A83120313220884000A128A111A
:10055800BE230A128A110A128A11DC230A128A118E
:10056800013083120313A1002108A207822A013057
:100578000A128A11F3230A128A11623083120313B2
:10058800A1006530A000A00BC72AA10BC72A3830EC
:1005980083120313A0002008F50000300A128A1104
:1005A8002B230A128A11063083120313A000200895
:1005B800F50000300A128A112B230A128A110C3016
:1005C80083120313A0002008F50000300A128A11D4
:1005D8002B230A128A110A128A11232408002830B0
:1005E80083120313940083160313910183120313D8
:1005F8002808AC002908AD002A08AE002B08AF0077
:1006080002300310AC0DAD0DAE0DAF0DFF3E031D56
:10061800052B2F08A3002E08A2002D08A1002C08E6
:10062800A0000130A7003130A6002D30A500003011
:10063800A4000A128A11E121831203132008FF3E45
:100648008316031393009401871507160800F80012
:1006580078080A128A11E8230A128A1175080A1200
:100668008A1138240A128A1101300A128A11F323D6
:100678000A128A110730F7007D30F600F60B422B7C
:10068800F70B422B00300A128A11F3230A128A113F
:100698000D30F700FB30F600F60B502BF70B502B04
:1006A800552B00300A128A11E8230A128A110030E9
:1006B8000A128A11382408007408750403198D2B4E
:1006C800F901F90AF51B742B01300310F40DF50D2F
:1006D800FF3E031D692B0130F8007808F907662BE7
:1006E80075087702031D7A2B74087602031C822B87
:1006F8007408F6027508031CF703F70201300310AB
:10070800F50CF40CFF3E031D832B0130F902031D89
:10071800742B7708F5007608F40008000A128A118D
:1007280012240A128A118316031391150A128A11C8
:1007380012240A128A11831203131308F600F70110
:100748007608F8007708F9000A128A1112240A12AA
:100758008A1174087504031DB52B831603139116AB
:10076800B82B83160313911211167908F50078082F
:10077800F400080003308A000408840A8207003461
:1007880069343234633420344D344134533454346E
:1007980045345234003483120313A00020088038F3
:1007A800F9007908F50000300A128A112B23080095
:1007B80083120313A0002008F9007908F50001301E
:1007C8000A128A112B230800F400741CEF2B8312E1
:1007D8000313061608008312031306120800F40018
:1007E800741CFA2B83120313861608008312031352
:1007F800861208007308FF0072088A0071088400D6
:10080800700E8300FE0E7E0E0900C030F9007908D4
:10081800F50000300A128A112B23080083160313EF
:100828001419122C11081F3903190800122C0A1266
:100838008A11122474088312031393000800F50127
:10084800F50A00300A128A112B2308000A128A11AD
:10085800122483160313111508000A128A11122490
:100868008316031311140800F40074088312031389
:06087800880008000800E2
:02400E00723FFF
:00000001FF
