:060000000A128A11122809
:10000800FE00030EF0000408F1000A08F200831253
:1000180003137F08F3000A128A11252B0A128A118A
:10002800152883120313B701B801B901BA01BB013E
:10003800BC01BD01BE01BF01C00183010A128A11C2
:10004800F32883120313B300293084003730A50046
:100058000408A6000A30A7002508840083130008B6
:10006800A800A50A2608840028088000A60AA70B6D
:1000780030281030F4002730F5002408F700230852
:10008800F6000A128A11B0210A128A117508831221
:100098000313B2007408B1001030F4002730F500E3
:1000A8002408F7002308F6000A128A11D1220A123E
:1000B8008A11750883120313B0007408AF00E83082
:1000C800F4000330F5003008F7002F08F6000A1294
:1000D8008A11D1220A128A11750883120313AE00FD
:1000E8007408AD00E830F4000330F5003008F7007C
:1000F8002F08F6000A128A11B0210A128A1175080F
:1001080083120313B0007408AF006430F4000030A9
:10011800F5002E08F7002D08F6000A128A11D122E0
:100128000A128A11750883120313AC007408AB0015
:100138006430F4000030F5002E08F7002D08F600B2
:100148000A128A11B0210A128A1175088312031340
:10015800AE007408AD000A30F4000030F5002C0839
:10016800F7002B08F6000A128A11D1220A128A1106
:10017800750883120313AA007408A9000A30F40052
:100188000030F5002C08F7002B08F6000A128A1137
:10019800B0210A128A11750883120313AC0074087F
:1001A800AB0006303302031CDD280530A500250806
:1001B800B3003308031908003308A5002507FE3EDD
:1001C800293E840083130008303E0A128A11032353
:1001D8000A128A11013083120313B302DD280A12AE
:1001E8008A114C230A128A1183120313850186018E
:1001F800870188018901831603138501033086006E
:10020800FF308700880189010A128A1164220A12C4
:100218008A11453083120313B4003408B6000A1259
:100228008A1146230A128A11323083120313A50059
:100238000030A6000A128A112B220A128A11831290
:100248000313B4003408B6000A128A1130230A12C4
:100258008A11831203130708B400B5013408A300F8
:100268003508A40005300A128A1125200A128A11BD
:10027800013083120313B4003408B6070830A50010
:100288000030A6003608B4003408A7000A128A1104
:10029800EE210A128A118312031387011829F60026
:1002A800F701F8017808803AFF0080307F02031DCB
:1002B8005F2910307702031808007608031D732998
:1002C800770A83120313A0000130A1000030A200B6
:1002D80070290310A10DA20DA00B6D2984297703A5
:1002E800FF3A0F3E83120313A000A00A0130A100B9
:1002F8000030A20082290310A10DA20DA00B7F29B6
:1003080074082105A30075082205A4002308240405
:1003180003199229831203130514952983120313D1
:1003280005108914C73083120313A0009B29A00B62
:100338009A299E29831203138910C7308312031345
:10034800A000A629A00BA529A9290130F7070318A1
:10035800F80A0030F807562983120313A001A101F7
:10036800740875040319E929A201A20AF51BC82912
:1003780001300310F40DF50DFF3E031DBD290130BA
:10038800F8007808A207BA2901300310A00DA10DC2
:10039800FF3E031DC92975087702031DD529740876
:1003A8007602031CDE297408F6027508031CF7039D
:1003B800F702201401300310F50CF40CFF3E031D66
:1003C800DF290130A202031DC8292108F5002008F1
:1003D800F4000800831603138701831203138701AF
:1003E800C730F900F729F90BF629FA29FB298312F6
:1003F800031309112608F5002508F40001300A1234
:100408008A1153210A128A11831203130915C7305E
:10041800F9000E2AF90B0D2A112A122A8312031346
:100428002708870085108511C730F9001B2AF90BAA
:100438001A2A1E2A1F2A8312031385148515C7300A
:10044800F900262AF90B252A292A2A2A0800FF302A
:10045800831603138700831203138701C730F9003B
:10046800352AF90B342A382A392A83120313091139
:100478002608F5002508F40001300A128A115321D4
:100488000A128A11831203130915C730F9004C2A7E
:10049800F90B4B2A4F2A502A83120313851405118E
:1004A8008511C730F900582AF90B572A5B2A5C2AAC
:1004B800831203130708F9007908A7002708080022
:1004C80001300A128A111A230A128A116230831221
:1004D8000313A1006530A000A00B702AA10B702A9D
:1004E800383083120313A0002008F50000300A12E8
:1004F8008A119C220A128A11063083120313A00063
:100508002008F50000300A128A119C220A128A116A
:100518000C3083120313A0002008F50000300A12E3
:100528008A119C220A128A110A128A113923080098
:10053800F80078080A128A110F230A128A1175081E
:100548000A128A1140230A128A1101300A128A11EA
:100558001A230A128A110730F7007D30F600F60BCD
:10056800B32AF70BB32A00300A128A111A230A1287
:100578008A110D30F700FB30F600F60BC12AF70B95
:10058800C12AC62A00300A128A110F230A128A11B8
:1005980000300A128A1140230800740875040319F0
:1005A800FE2AF901F90AF51BE52A01300310F40DBA
:1005B800F50DFF3E031DDA2A0130F8007808F90727
:1005C800D72A75087702031DEB2A74087602031CE4
:1005D800F32A7408F6027508031CF703F7020130C2
:1005E8000310F50CF40CFF3E031DF42A0130F90248
:1005F800031DE52A7708F5007608F4000800831241
:100608000313A0002008F9007908F50001300A1248
:100618008A119C220800F400741C162B8312031301
:10062800061608008312031306120800F400741C4F
:10063800212B8312031386160800831203138612D4
:1006480008007308FF0072088A0071088400700EA1
:100658008300FE0E7E0E09000230F9007908F500CD
:1006680000300A128A119C220800F501F50A0030B0
:100678000A128A119C220800F400740883120313DA
:1006880088000800831203138510051185150800DA
:02069800080058
:02400E00723FFF
:00000001FF
