:060000000A128A11122809
:10000800FE00030EF0000408F1000A08F200831253
:1000180003137F08F3000A128A11EA2C0A128A11C4
:10002800152883120313C701C801C901CA01CB01EE
:10003800CC01CD01CE01CF01D00183010A128A1172
:10004800542A831203132708AD002808AE00290894
:10005800AF0003102E0D2F0DB0003008B10031088D
:10006800031D3D280030A7000030A8000030A9007B
:1000780008002A08AD002B08AE002C08AF000310BA
:100088002E0D2F0DB0003008B6003608031D53287A
:100098000030A7000030A8000030A900080036088A
:1000A8007B3EAD002D08B1072708AD002808AE003B
:1000B8002908AF0010300310AF0CAE0CAD0CFF3E9A
:1000C800031D5F282D08B0003008B6002A08AD00CF
:1000D8002B08AE002C08AF0010300310AF0CAE0C8C
:1000E800AD0CFF3E031D71282D08B0003008B60680
:1000F8008030AD002D08B605A817AB17FF30AA054C
:10010800FF30AB050030AC050030B2000030B30062
:100118000030B4000730AD002D08B500271CA22818
:100128002A08B2072B08031103182B0A031DB3076B
:100138002C08031103182C0A031DB40701300310FF
:10014800A90CA80CA70CFF3E031DA328013003101F
:10015800AA0DAB0DAC0DFF3E031DAB280130B50257
:10016800031D92280930AD002D08B500271CCA28A8
:100178002A08B2072B08031103182B0A031DB3071B
:100188002C08031103182C0A031DB40701300310AF
:10019800A90CA80CA70CFF3E031DCB2801300310A7
:1001A800B40CB30CB20CFF3E031DD3280130B502CA
:1001B800031DBA283208F4003308F5003408F600A5
:1001C8003108AD002D08F7003608AE002E08F800FB
:1001D8000A128A11CF22740883120313A700750824
:1001E800A8007608A900080083120313B300293079
:1001F80084004730A5000408A6000A30A700250897
:10020800840083130008A800A50A2608840028088B
:100218008000A60AA70B03291030F4002730F50048
:100228002408F7002308F6000A128A1141230A124B
:100238008A11750883120313B2007408B1001030D4
:10024800F4002730F5002408F7002308F6000A1206
:100258008A1128240A128A11750883120313B00020
:100268007408AF00E830F4000330F5003008F700F8
:100278002F08F6000A128A1128240A128A11750812
:1002880083120313AE007408AD00E830F4000330A5
:10029800F5003008F7002F08F6000A128A114123EA
:1002A8000A128A11750883120313B0007408AF008C
:1002B8006430F4000030F5002E08F7002D08F60031
:1002C8000A128A1128240A128A1175088312031344
:1002D800AC007408AB006430F4000030F5002E0860
:1002E800F7002D08F6000A128A1141230A128A1112
:1002F800750883120313AE007408AD000A30F400C9
:100308000030F5002C08F7002B08F6000A128A11B5
:1003180028240A128A11750883120313AA00740884
:10032800A9000A30F4000030F5002C08F7002B086B
:10033800F6000A128A1141230A128A1175088312DB
:100348000313AC007408AB0006303302031CB02959
:100358000530A5002508B300330803190800330841
:10036800A5002507FE3E293E840083130008303E81
:100378000A128A11C8240A128A110130831203133F
:10038800B302B029831203133708BB003808BC0036
:100398003908BD0003103C0D3D0DBE003E08C400E9
:1003A8004408031DE0290030BA000030B9000030CD
:1003B800B8000030B70008003708BB003808BC0098
:1003C8003908BD0017300310BD0CBC0CBB0CFF3E38
:1003D800031DE7293B08BE003E08BF00B817FF30E1
:1003E800B705FF30B8050030B9053708C000380830
:1003F800C1003908C200C3018E30C402C41F222ABA
:100408004408803A8F3E0318122A0030BA000030A0
:10041800B9000030B8000030B70008000130031000
:10042800C30CC20CC10CC00CFF3E031D132A0130C3
:10043800BB003B08C40703193D2A122A183044029E
:10044800031C3A2A0030BA000030B9000030B80066
:100458000030B70008000130BB000310C00DC10D0B
:10046800C20DC30DBB0B312A0130C4024408031D61
:100478002F2A3F0803194B2AC009C109C209C30919
:10048800C00A0319C10A0319C20A0319C30A430897
:10049800BA004208B9004108B8004008B70008008F
:1004A8000A128A1118250A128A1183120313850168
:1004B800860187018801FF30831603138500033006
:1004C8008600870188010A128A11BB230A128A1141
:1004D8000A128A11AC240A128A110A128A111425E6
:1004E8000A128A110A128A11FE240A128A1101308C
:1004F8000A128A117F230A128A11831203139F1288
:100508001F129F110A128A115A240A128A11750899
:1005180083120313A4007408A3000A128A11852405
:100528000A128A11831203132308AA002408AB00B5
:100538002508AC004830A7009930A8004030A90031
:100548000A128A1125200A128A1183120313270816
:10055800B7002808B8002908B9000A128A11C6216C
:100568000A128A11831203133808C6003708C50017
:1005780008300A128A11BB240A128A118312031343
:100588004608A4004508A30005300A128A11F8207D
:100598000A128A11812A77080319D72A760875045E
:1005A8007404031DEC2A0030F4000030F50000301C
:1005B800F6000800013083120313A0002008F70793
:1005C80001300310F60CF50CF40CFF3E031DE52A70
:1005D800FE3076050319092BDE2A01308312031336
:1005E800A0002008F7070130F40700300318013095
:1005F800F507003003180130F60701300310F60C38
:10060800F50CF40CFF3E031D022BFF307605031991
:10061800182BF12A0130F70201300310F40DF50D03
:10062800F60DFF3E031D112BF51B1E2B0230770222
:1006380003180E2B7718262BFF30F4057F30F505AD
:10064800FF30F6050310F70C770883120313A00098
:10065800A101A20110300310A00DA10DA20DFF3EB3
:10066800031D2F2B2008F4042108F5042208F604A2
:10067800780803190800F617080083120313A0016D
:10068800A1017408750403197A2BA201A20AF51BAB
:10069800592B01300310F40DF50DFF3E031D4E2BB1
:1006A8000130F8007808A2074B2B01300310A00D89
:1006B800A10DFF3E031D5A2B75087702031D662BFB
:1006C80074087602031C6F2B7408F6027508031C65
:1006D800F703F702201401300310F50CF40CFF3E69
:1006E800031D702B0130A202031D592B2108F500B0
:1006F8002008F400080083120313A20022088400D3
:100708000A128A119D240A128A11003A0319080054
:10071800220884000A128A119D240A128A110A3AB0
:100728000319A02B220884000A128A119D240A1298
:100738008A110D3A031DA62B0A128A11F5240A12F2
:100748008A11B42B83120313220884000A128A1117
:100758009D240A128A110A128A11C8240A128A11BF
:10076800013083120313A1002108A207822B013054
:100778000A128A11DF240A128A11623083120313C3
:10078800A1006530A000A00BC72BA10BC72B3830E8
:1007980083120313A0002008F50000300A128A1102
:1007A800F3230A128A11063083120313A0002008CB
:1007B800F50000300A128A11F3230A128A110C304C
:1007C80083120313A0002008F50000300A128A11D2
:1007D800F3230A128A110A128A1107250800F80061
:1007E80078080A128A11D4240A128A1175080A1282
:1007F8008A110E250A128A1101300A128A11DF2481
:100808000A128A110730F7007D30F600F60B0A2C21
:10081800F70B0A2C00300A128A11DF240A128A11F7
:100828000D30F700FB30F600F60B182CF70B182CE0
:100838001D2C00300A128A11D4240A128A110030A1
:100848000A128A110E250800740875040319552C1C
:10085800F901F90AF51B3C2C01300310F40DF50DD4
:10086800FF3E031D312C0130F8007808F9072E2CC3
:1008780075087702031D422C74087602031C4A2C63
:100888007408F6027508031CF703F7020130031019
:10089800F50CF40CFF3E031D4B2C0130F902031D2F
:1008A8003C2C7708F5007608F4000800F801F901F7
:1008B8000730F7007D30F600F60B602CF70B602C44
:1008C800831203131F151F19672C1E08F600F70162
:1008D8007608F700F6017608F8007708F90083161D
:1008E80003131E087807F60079080318790AF70039
:1008F8007608F8007708F9007908F5007808F40018
:100908000800831203132308F4002408F500F601F5
:100918008E30A6002608F700F8010A128A11CF22A5
:10092800740883120313A3007508A4007608A500B1
:10093800080004308A000408840A82070034563408
:100948006F346C3474346134673465343A34003449
:10095800831203139F171F13831603139F179F11E7
:100968001F119F101F10831203131F1008008312FA
:100978000313A00020088038F9007908F50000303A
:100988000A128A11F323080083120313A000200817
:10099800F9007908F50001300A128A11F3230800DA
:1009A800F400741CDB2C8312031306160800831250
:1009B800031306120800F400741CE62C83120313B8
:1009C8008616080083120313861208007308FF00B6
:1009D80072088A0071088400700E8300FE0E7E0E75
:1009E8000900C030F9007908F50000300A128A11B0
:1009F800F32308000230F9007908F50000300A12E4
:100A08008A11F3230800F501F50A00300A128A1149
:100A1800F3230800F4007408831203138800080005
:0A0A2800831203131F1408000800D6
:02400E00723FFF
:00000001FF
