:060000000A128A11122809
:10000800FE00030EF0000408F1000A08F200831253
:1000180003137F08F3000A128A110C2A0A128A11A4
:10002800152883120313AF01B001B101B201B30166
:10003800B401B501B601B701B80183010A128A11EA
:1000480025280A128A1136220A128A1183120313EA
:1000580085018601870188018901FF308316031312
:100068008500033086008701880189010A128A11F8
:1000780057210A128A118312031306138613AD013E
:10008800AE01A901AA01A501A601AB01AC01A70116
:10009800A8010310831203138618031400300318F1
:1000A8000130A300A4012308A9002408AA00031012
:1000B80006180314003003180130A300A401230814
:1000C800AB002408AC0002302D062E04031D6E2858
:1000D800AD01AE0126082A06031D74282508290645
:1000E8000319802829082A04031D80280130AD0738
:1000F8000318AE0A0030AE072A08A6002908A50092
:1001080028082C06031D8A2827082B060319A62869
:100118002B082C04031DA6282D082E04031D9B283C
:10012800061F982806139B28061B9B2806172D03D5
:100138002E04031DA628861FA3288613A628861B1F
:10014800A62886172C08A8002B08A7000B290A1236
:100158008A1120220A128A110A128A1129220A12E5
:100168008A1101300A128A111B210A128A1183127C
:100178000313061FCC2805300A128A11DD210A1242
:100188008A1111300A128A111B210A128A114D286C
:10019800061B4D2805300A128A11DD210A128A1120
:1001A8000D300A128A111B210A128A114D280A12CF
:1001B8008A1120220A128A110A128A1129220A1285
:1001C8008A1107300A128A111B210A128A11831216
:1001D8000313861FFC2805300A128A11DD210A1232
:1001E8008A1111300A128A111B210A128A114D280C
:1001F800861B4D2805300A128A11DD210A128A1140
:100208000D300A128A111B210A128A114D288312F5
:1002180003132E08003A031912294D282D08003A15
:100228000319AB28013A0319DB284D284D288312FE
:100238000313A200220884000A128A11C4210A1298
:100248008A11003A03190800220884000A128A1148
:10025800C4210A128A110A3A03193C292208840087
:100268000A128A11C4210A128A110D3A031D422961
:100278000A128A1117220A128A11502983120313AB
:10028800220884000A128A11C4210A128A110A1249
:100298008A11EA210A128A11013083120313A1007C
:1002A8002108A2071E2901300A128A1101220A1206
:1002B8008A11623083120313A1006530A000A00BDD
:1002C8006329A10B6329383083120313A000200887
:1002D800F50000300A128A118F210A128A1106309D
:1002E80083120313A0002008F50000300A128A11B7
:1002F8008F210A128A110C3083120313A0002008E0
:10030800F50000300A128A118F210A128A110A1286
:100318008A1129220800F80078080A128A11F621A1
:100328000A128A1175080A128A1130220A128A11D1
:1003380001300A128A1101220A128A110730F700C5
:100348007D30F600F60BA629F70BA62900300A1215
:100358008A1101220A128A110D30F700FB30F600CB
:10036800F60BB429F70BB429B92900300A128A11FF
:10037800F6210A128A1100300A128A113022080066
:1003880001308A000408840A820700344C3445345A
:10039800443431343A3400344C34453444343234FF
:1003A8003A3400344F344634463400344F344E34F3
:1003B800003483120313A00020088038F90079085C
:1003C800F50000300A128A118F21080083120313E6
:1003D800A0002008F9007908F50001300A128A11F6
:1003E8008F210800F400741CFD29831203130616DC
:1003F80008008312031306120800F400741C082A6C
:10040800831203138616080083120313861208004A
:100418007308FF0072088A0071088400700E830058
:10042800FE0E7E0E0900C030F9007908F500003094
:100438000A128A118F2108000230F9007908F500A4
:1004480000300A128A118F210800F501F50A0030E0
:100458000A128A118F210800F4007408831203130A
:06046800880008000800F6
:02400E00723FFF
:00000001FF
