:060000000A128A11122809
:10000800FE00030EF0000408F1000A08F200831253
:1000180003137F08F3000A128A1136290A128A117B
:10002800152883120313A001A101A201A301A401B1
:10003800A501A601A701A801A90183010A128A1135
:10004800CE2883120313AC002C0884000A128A11EC
:1000580015210A128A11003A031908002C08840095
:100068000A128A1115210A128A110A3A0319462816
:100078002C0884000A128A1115210A128A110D3AD5
:10008800031D4C280A128A1141210A128A115A2882
:10009800831203132C0884000A128A1115210A12EC
:1000A8008A110A128A1109210A128A11013083124F
:1000B8000313AB002B08AC07282801300A128A1159
:1000C8002B210A128A11623083120313AB006530A8
:1000D800AA00AA0B6D28AB0B6D28383083120313C6
:1000E800AA002A08F50000300A128A1199200A127B
:1000F8008A11063083120313AA002A08F50000307B
:100108000A128A1199200A128A110C3083120313D9
:10011800AA002A08F50000300A128A1199200A124A
:100128008A110A128A1153210800F80078080A1265
:100138008A1120210A128A1175080A128A115A2175
:100148000A128A1101300A128A112B210A128A1105
:100158000730F7007D30F600F60BB028F70BB02813
:1001680000300A128A112B210A128A110D30F70069
:10017800FB30F600F60BBE28F70BBE28C32800306C
:100188000A128A1120210A128A1100300A128A11D1
:100198005A2108000A128A1160210A128A11831250
:1001A80003138501860187018801FF308316031335
:1001B800850003308600870188010A128A116120B0
:1001C8000A128A110A128A11FA200A128A110A12CC
:1001D8008A114A210A128A1101300A128A1125202D
:1001E8000A128A11831203130617EB2883120313CA
:1001F8009F171F13831603139F179F111F119F101B
:100208001F10831203131F10080083120313AA0080
:100218002A08F9007908F50001300A128A11992094
:10022800080001308A000408840A82070034683410
:100238006134743469340034F400741C272983123F
:100248000313061608008312031306120800F400AD
:10025800741C3229831203138616080083120313B1
:10026800861208007308FF0072088A00710884006B
:10027800700E8300FE0E7E0E0900C030F90079086A
:10028800F50000300A128A11992008000230F9009E
:100298007908F50000300A128A1199200800F50142
:1002A800F50A00300A128A1199200800F40074082F
:0A02B80083120313880008000800F9
:02400E00723FFF
:00000001FF
