:060000000A128A11122809
:10000800FE00030EF0000408F1000A08F200831253
:1000180003137F08F3000A128A11DE2B0A128A11D1
:10002800152883120313C701C801C901CA01CB01EE
:10003800CC01CD01CE01CF01D00183010A128A1172
:1000480025280A128A1108240A128A118312031316
:1000580085018601870188018901831603138501BB
:10006800CF30860018308700880189010A128A116A
:10007800FA220A128A1183120313B701B801B901CF
:10008800BA01BB01BC01BD01BE01BF01C001C10174
:10009800C201C301C401C501C6010A128A11F223B3
:1000A8000A128A1109300A128A11BE220A128A110A
:1000B8008312031387128717071305148510051178
:1000C8008511051285120910891009118714071165
:1000D80083160313860120308700831203138613C7
:1000E80006130716871186150611071406108712BE
:1000F800871307170D3083120313B600AF30B5000E
:10010800B530B400B40B8628B50B8628B60B862804
:100118008D28831203138716871707130730831256
:100128000313B6005830B5005930B400B40B9A2800
:10013800B50B9A28B60B9A28831203138613061355
:100148000712871186110611071006104030831216
:100158000313B6006A30B5009730B400B40BB22868
:10016800B50BB228B60BB2280A128A11F2230A126A
:100178008A1101300A128A11BE220A128A110A1241
:100188008A11F2230A128A11CF30831603138600CC
:10019800193087008312031387128717071340301B
:1001A8000A128A11AF230A128A1103108312031349
:1001B800861B0314003003180130B400B50134085D
:1001C800A3003508A40001300A128A11B2210A12CC
:1001D8008A1141300A128A11AF230A128A110310B8
:1001E80083120313061B0314003003180130B400F4
:1001F800B5013408A3003508A40001300A128A1199
:10020800B2210A128A1142300A128A11AF230A1245
:100218008A11031083120313071A031400300318FA
:100228000130B400B5013408A3003508A40001303A
:100238000A128A11B2210A128A1143300A128A114B
:10024800AF230A128A1103108312031387190314A8
:10025800003003180130B400B5013408A300350894
:10026800A40001300A128A11B2210A128A114430FC
:100278000A128A11AF230A128A1103108312031378
:1002880086190314003003180130B400B50134088E
:10029800A3003508A40001300A128A11B2210A12FB
:1002A8008A1145300A128A11AF230A128A110310E3
:1002B8008312031306190314003003180130B40025
:1002C800B5013408A3003508A40001300A128A11C8
:1002D800B2210A128A1146300A128A11AF230A1271
:1002E8008A1103108312031307180314003003182C
:1002F8000130B400B5013408A3003508A40001306A
:100308000A128A11B2210A128A1147300A128A1176
:10031800AF230A128A110310831203130618031459
:10032800003003180130B400B5013408A3003508C3
:10033800A40001300A128A11B2210A128A118630E9
:1003480083120313B6002B30B5008D30B400B40B04
:10035800AB29B50BAB29B60BAB2951288312031374
:10036800B300293084004730A5000408A6000A30ED
:10037800A7002508840083130008A800A50A2608FA
:10038800840028088000A60AA70BBD291030F400B5
:100398002730F5002408F7002308F6000A128A110E
:1003A80080220A128A11750883120313B200740896
:1003B800B1001030F4002730F5002408F7002308B6
:1003C800F6000A128A1167230A128A117508831225
:1003D8000313B0007408AF00E830F4000330F500F0
:1003E8003008F7002F08F6000A128A1167230A124C
:1003F8008A11750883120313AE007408AD00E83043
:10040800F4000330F5003008F7002F08F6000A1250
:100418008A1180220A128A11750883120313B00008
:100428007408AF006430F4000030F5002E08F700BF
:100438002D08F6000A128A1167230A128A11750814
:1004480083120313AC007408AB006430F40000306E
:10045800F5002E08F7002D08F6000A128A118022EE
:100468000A128A11750883120313AE007408AD00CE
:100478000A30F4000030F5002C08F7002B08F600CD
:100488000A128A1167230A128A1175088312031344
:10049800AA007408A9000A30F4000030F5002C08FE
:1004A800F7002B08F6000A128A1180220A128A1114
:1004B800750883120313AC007408AB0006303302CE
:1004C800031C6A2A0530A5002508B3003308031960
:1004D80008003308A5002507FE3E293E8400831343
:1004E8000008303E0A128A11BC230A128A11013010
:1004F80083120313B3026A2A83120313A001A10112
:10050800740875040319B92AA201A20AF51B982ACE
:1005180001300310F40DF50DFF3E031D8D2A013047
:10052800F8007808A2078A2A01300310A00DA10D4F
:10053800FF3E031D992A75087702031DA52A740832
:100548007602031CAE2A7408F6027508031CF7032A
:10055800F702201401300310F50CF40CFF3E031DC4
:10056800AF2A0130A202031D982A2108F5002008AD
:10057800F400080083120313A200220884000A1260
:100588008A1199230A128A11003A031908002208CD
:1005980084000A128A1199230A128A110A3A031945
:1005A800DF2A220884000A128A1199230A128A1162
:1005B8000D3A031DE52A0A128A11E9230A128A1143
:1005C800F32A83120313220884000A128A1199233A
:1005D8000A128A110A128A11BC230A128A110130DE
:1005E80083120313A1002108A207C12A01300A12AD
:1005F8008A11D3230A128A11623083120313A100CD
:100608006530A000A00B062BA10B062B38308312F7
:100618000313A0002008F50000300A128A113223C3
:100628000A128A11063083120313A0002008F5006D
:1006380000300A128A1132230A128A110C308312EE
:100648000313A0002008F50000300A128A11322393
:100658000A128A110A128A11FB230800F800780886
:100668000A128A11C8230A128A1175080A128A11F5
:1006780002240A128A1101300A128A11D3230A129B
:100688008A110730F7007D30F600F60B492BF70B7F
:10069800492B00300A128A11D3230A128A110D300D
:1006A800F700FB30F600F60B572BF70B572B5C2B9C
:1006B80000300A128A11C8230A128A1100300A125D
:1006C8008A1102240800740875040319942BF9018F
:1006D800F90AF51B7B2B01300310F40DF50DFF3ED5
:1006E800031D702B0130F8007808F9076D2B750889
:1006F8007702031D812B74087602031C892B74086A
:10070800F6027508031CF703F70201300310F50C15
:10071800F40CFF3E031D8A2B0130F902031D7B2BCD
:100728007708F5007608F400080003308A0004080A
:10073800840A82070034523465346134643469347D
:100748006E3467340034573472346934743469341D
:100758006E346734003483120313A00020088038F5
:10076800F9007908F50000300A128A1132230800CE
:1007780083120313A0002008F9007908F50001305E
:100788000A128A1132230800F400741CCF2B83123A
:100798000313061608008312031306120800F40058
:1007A800741CDA2B831203138616080083120313B2
:1007B800861208007308FF0072088A007108840016
:1007C800700E8300FE0E7E0E0900C030F900790815
:1007D800F50000300A128A11322308000230F900AD
:1007E8007908F50000300A128A1132230800F50151
:1007F800F50A00300A128A1132230800F40074083E
:0A08080083120313880008000800A3
:02400E003A3F37
:00000001FF
