:060000000A128A11122809
:10000800FE00030EFA000408FB000A08FC00831235
:1000180003137F08FD000A128A11A6290A128A1101
:100028001528F001F101F201F301F401F501F601DF
:1000380083134130840059300A128A1185238301C1
:100048000A128A11042A831203132F08B3003008F6
:10005800B4003108B5003208B60006300310B30DFD
:10006800B40DB50DB60DFF3E031D32283608A300AA
:100078003508A2003408A1003308A0000030B700FA
:100088002D30B8003130B9000130BA002F08BB005C
:100098003008BC003108BD003208BE00063003102D
:1000A800BB0DBC0DBD0DBE0DFF3E031D5328BB0986
:1000B800BC09BD09BE09BB0A0319BC0A0319BD0A5C
:1000C8000319BE0A3B08B7073C0803183C0F6D2804
:1000D8006E28B8073D0803183D0F73287428B90720
:1000E8003E0803183E0ABA073A08A7003908A600CE
:1000F8003808A5003708A4000A128A1117210A1225
:100108008A11831203132108C0002008BF000130A0
:100118004002003003193F02031CF7282F08B300E0
:100128003008B4003108B5003208B60004300310B6
:10013800B30DB40DB50DB60DFF3E031D9B28360853
:10014800A3003508A2003408A1003308A00000303D
:10015800B7002D30B8003130B9000130BA002F088F
:10016800BB003008BC003108BD003208BE000430B6
:100178000310BB0DBC0DBD0DBE0DFF3E031DBC28FD
:10018800BB09BC09BD09BE09BB0A0319BC0A03198E
:10019800BD0A0319BE0A3B08B7073C0803183C0F01
:1001A800D628D728B8073D0803183D0FDC28DD28D6
:1001B800B9073E0803183E0ABA073A08A7003908E3
:1001C800A6003808A5003708A4000A128A111721CA
:1001D8000A128A11831203132108C0002008BF00E5
:1001E80083160313181501308312400200300319D7
:1001F8003F0203180800831603138C168312031397
:100208003F088316031399001812831203139817D3
:1002180083160313871707178312031318168316F9
:1002280003139816080083120313AA01A31F292990
:10023800A009A109A209A309A00A0319A10A03197F
:10024800A20A0319A30AAA01AA0AA71F3A29A409FC
:10025800A509A609A709A40A0319A50A0319A60A44
:100268000319A70A0130A8002808AA060030AE0022
:100278000030AD000030AC000030AB002308220491
:100288002104200403198F29A901A90AA31B5A29AB
:100298000130A8000310A00DA10DA20DA30DA80BFD
:1002A8004E290130A8002808A9074A290130A800CA
:1002B8000310AB0DAC0DAD0DAE0DA80B5C292308DA
:1002C8002702031D712922082602031D712921080E
:1002D8002502031D712920082402031C82292008F5
:1002E800A4022108031C210FA5022208031C220FC7
:1002F800A6022308031C230FA7022B1401300310A6
:10030800A30CA20CA10CA00CFF3E031D83290130F5
:10031800A902031D5A292A0803199D29AB09AC090A
:10032800AD09AE09AB0A0319AC0A0319AD0A0319E2
:10033800AE0A2E08A3002D08A2002C08A1002B0845
:10034800A00008000B1DDD29653081000B1101306C
:10035800F4070318F50A0030F5070030750233304A
:1003680003197402031CD029720873040319CE29D7
:10037800121DC4290C300A128A1105230A128A1187
:1003880004308312031392060130F2020030031C7A
:10039800F303F302F401F501700871040319DC2971
:1003A80006170130F0020030031CF103F102DD29C9
:1003B80006138B1CE9290630F2000030F3001211F5
:1003C8008830F0001330F1008B108C1EF7290A12C8
:1003D8008A1172230A128A11413A031DF7298830BB
:1003E800F2001330F3007D0883120313FF007C082A
:1003F8008A007B0884007A0E8300FE0E7E0E0900B8
:100408000A128A11A3230A128A118312031385017F
:10041800860187018801FF308316031385000330A6
:1004280086008030870088010A128A118F220A12FA
:100438008A110A128A1149230A128A110A128A1188
:1004480039230A128A11003083120313B2000030D4
:10045800B1002530B0008030AF000A128A11272081
:100468000A128A1104308316031381006430831240
:10047800031381000B168B168B170B178030A00007
:100488000030A1000A128A11E7220A128A110130EB
:100498000A128A11C7220A128A11512A83120313D7
:1004A800A40024080A128A1158230A128A118312F6
:1004B800031321080A128A119D230A128A11013096
:1004C8000A128A1165230A128A110730831203134C
:1004D800A3007C30A200A20B6F2AA30B6F2A000096
:1004E80000300A128A1165230A128A110D3083120C
:1004F8000313A300FB30A200A20B802AA30B802ABF
:1005080000300A128A1158230A128A1100300A127E
:100518008A119D23080001300A128A1165230A12E4
:100528008A11623083120313A6006530A500A50B5B
:100538009B2AA60B9B2A383083120313A500250893
:10054800A10000300A128A1152220A128A110630BA
:1005580083120313A5002508A10000300A128A118E
:1005680052220A128A110C3083120313A50025089F
:10057800A10000300A128A1152220A128A110A12A4
:100588008A117C23080083120313A2002208840026
:100598000A128A1121230A128A11003A0319080043
:1005A800220884000A128A1121230A128A110A12C7
:1005B8008A118D230A128A11013083120313A100B4
:1005C8002108A207CA2A831203132008A2000430B4
:1005D8000310A20DFF3E031DEC2A30302205A300B4
:1005E8001D080F3923049D002108A3002008A2003C
:1005F8000310A30CA20C0310A30CA20C22089B004E
:100608000800F900790884000A128A1121230A12C5
:100618008A11003A03190800790884000A128A111D
:1006280021230A128A110A128A1195230A128A11A1
:100638000130F8007808F907062B03308A0004080F
:10064800840A820700347E347E345234653473342D
:10065800653474347E347E340A340034423445348C
:100668004534503421340A340034FF3083160313E0
:10067800920083120313921412149B0112119D15F8
:100688001D159D101D109B010800831203139F1751
:100698001F13831603139F179F111F119F101F10FD
:1006A800831203131F10080083120313A000201CD9
:1006B800612B831203130616080083120313061214
:1006C800080083120313A000201C6E2B831203134F
:1006D8008616080083120313861208008312031378
:1006E800981C782B181218168C1E782B1A080800DC
:1006F80083120313A101A10A00300A128A1152229F
:10070800080064008001840A040603190034040602
:10071800862B83120313A0000C1E902B200899002F
:100728000800F700831203130C1E962B7708990014
:10073800080083120313A00020088800080008009E
:02400E00723FFF
:00000001FF
