:060000000A128A11122809
:10000800FE00030EF0000408F1000A08F200831253
:1000180003137F08F3000A128A11F4290A128A11BD
:1000280015280A128A11EE220A128A11F6000A12FB
:100038008A11EF220A128A11F7000A128A11F02295
:100048000A128A11F8000A128A11F122F900B50180
:10005800B601B701B801B901BA01BB01BC01BD01C4
:10006800BE0183010A128A119928003083120313F2
:10007800AB000030AA000030A9000030A800230817
:1000880022042104200403199028AC01AC0AA31B04
:100098005B280130F4000310A00DA10DA20DA30DE3
:1000A800F40B4F280130F4007408AC074B280130DA
:1000B800F4000310A80DA90DAA0DAB0DF40B5D28D3
:1000C80023082702031D722822082602031D72280E
:1000D80021082502031D722820082402031C8328F6
:1000E8002008A4022108031C210FA5022208031CD2
:1000F800220FA6022308031C230FA702281401308D
:100108000310A30CA20CA10CA00CFF3E031D842815
:100118000130AC02031D5B282B08A3002A08A200AB
:100128002908A1002808A00008000A128A11F22252
:100138000A128A1183120313850186018701880137
:10014800FF308316031385000330860088010A12E6
:100158008A1189210A128A11043083160313810037
:1001680064308312031381000B168B168B170B1741
:100178000A128A11C1210A128A110030831203134C
:10018800A000A1000A128A114A220A128A1100301C
:100198000A128A1181220A128A1101300A128A115E
:1001A80015210A128A11CB2883120313A8002808E4
:1001B8000A128A11B0220A128A118312031325081F
:1001C8000A128A116F220A128A1101300A128A1140
:1001D800BB220A128A11073083120313A7007C304E
:1001E800A600A60BF528A70BF528000000300A1278
:1001F8008A11BB220A128A110D3083120313A70039
:10020800FB30A600A60B0629A70B062900300A1208
:100218008A11B0220A128A1100300A128A116F223A
:10022800080083120313AC002C0884000A128A11F8
:100238009A220A128A11003A031908002C0884002D
:100248000A128A119A220A128A110A3A03193629BD
:100258002C0884000A128A119A220A128A110D3A6D
:10026800031D3C290A128A11A5220A128A114A2959
:10027800831203132C0884000A128A119A220A1284
:100288008A110A128A118E220A128A1101308312E7
:100298000313AB002B08AC0718292830831203136B
:1002A8009400831603139101831203132D08B100E0
:1002B8002E08B2002F08B3003008B4000230031033
:1002C800B10DB20DB30DB40DFF3E031D6329340803
:1002D800A3003308A2003208A1003108A0000130B1
:1002E800A7003130A6002D30A5000030A4000A1266
:1002F8008A113920831203132008FF3E8316031343
:100308009300940187150716080001300A128A1114
:10031800BB220A128A11623083120313AA006530C5
:10032800A900A90B9529AA0B952938308312031324
:10033800A9002908A50000300A128A11D8200A123B
:100348008A11063083120313A9002908A50000307A
:100358000A128A11D8200A128A110C308312031348
:10036800A9002908A50000300A128A11D8200A120B
:100378008A110A128A11C622080000308312031358
:10038800B0000630AF001A30AE008030AD000A125F
:100398008A1151210A128A110A128A11E7220A12B5
:1003A8008A114030F4000030F5000A128A11D82270
:1003B8000A128A110A30F4000030F5000A128A1174
:1003C800D8220A128A11E830F4000030F5000A1227
:1003D8008A11D8220A128A110A128A11E022080008
:1003E8000B1D172A653081000B110130F80703181F
:1003F800F90A0030F9070130F6070318F70A003048
:10040800F707FA3078067904031D0E2A403086066D
:10041800F801F901643076067704031D172A803045
:100428008606F601F7018B188B107308FF00720817
:100438008A0071088400700E8300FE0E7E0E09008B
:100448000A128A11E7220A128A114030F400003099
:10045800F5000A128A11D8220A128A110930F4000A
:100468000030F5000A128A11D8220A128A11831262
:1004780003132108F5002008F4000A128A11D82273
:100488000A128A110A128A11E02208000A128A1135
:10049800E7220A128A114030F4000030F5000A12EF
:1004A8008A11D8220A128A110030F400F5000A12C3
:1004B8008A11D8220A128A11831203132108F5001F
:1004C8002008F4000A128A11D8220A128A110A1284
:1004D8008A11E022080083120313A4002408A20052
:1004E800A3012208A0002308A1000A128A112422CD
:1004F8008312031324088800080083120313AA0038
:100508002A088038A9002908A50000300A128A1193
:10051800D820080083120313AA002A08A900290872
:10052800A50001300A128A11D820080002308A007A
:100538000408840A820700344134793461346D3404
:100548000034C03083120313A9002908A500003025
:100558000A128A11D8200800F400741CB72A8312E2
:100568000313061608008312031306120800F4008A
:10057800741CC22A831203138616080083120313FD
:100588008612080083120313A501A50A00300A1277
:100598008A11D8200800831603131419CF2A1108CA
:1005A8001F3903190800CF2A0A128A11CF227408AA
:1005B80083120313930008000A128A11CF228316AC
:1005C8000313111508000A128A11CF228316031388
:0E05D80011140800013400340134003408000E
:02400E00723FFF
:00000001FF
