:060000000A128A11F02F24
:1008FE000800F00070088312031388000800F1014D
:10090E00F10A00300A128A11662508000A128A11AD
:10091E00A32483160313111408000A128A11A324A8
:10092E0083160313111508000A128A11A3247008E6
:10093E008312031393000800831603131419A32CB8
:10094E0011081F3903190800A32CF6007608F500CC
:10095E007508F10001300A128A1166250800F000B0
:10096E00701CBD2C8312031386160800831203130A
:10097E0086120800F000701CC82C83120313061692
:10098E0008008312031306120800F600760880385A
:10099E00F5007508F10000300A128A11662508006C
:1009AE000A128A11A3240A128A11831603139115AF
:1009BE000A128A11A3240A128A118312031313082E
:1009CE00F200F3017208F4007308F5000A128A119E
:1009DE00A3240A128A1170087104031DFA2C8316BF
:1009EE0003139116FD2C831603139112111675081D
:1009FE00F1007408F000080001300A128A11B624C2
:100A0E000A128A116230F6006530F500F50B0D2DD5
:100A1E00F60B0D2D122D3830F5007508F100003053
:100A2E000A128A1166250A128A110630F500750817
:100A3E00F10000300A128A1166250A128A110C3052
:100A4E00F5007508F10000300A128A1166250A12A7
:100A5E008A110A128A11862408007008710403197B
:100A6E00612DF501F50AF11B482D01300310F00D33
:100A7E00F10DFF3E031D3D2D0130F4007408F50706
:100A8E003A2D71087302031D4E2D70087202031C5D
:100A9E00562D7008F2027108031CF303F3020130A5
:100AAE000310F10CF00CFF3E031D572D0130F50223
:100ABE00031D482D7308F1007208F0000800F400C1
:100ACE0074080A128A11C1240A128A1171080A12B4
:100ADE008A1180240A128A1101300A128A11B62450
:100AEE000A128A110730F3007D30F200F20B7D2DD1
:100AFE00F30B7D2D00300A128A11B6240A128A11C8
:100B0E000D30F300FB30F200F20B8B2DF30B8B2D1F
:100B1E00902D00300A128A11C1240A128A11003057
:100B2E000A128A11802408002830831203139400BD
:100B3E00831603139101831203132008A4002108C6
:100B4E00A5002208A6002308A70002300310A40D5A
:100B5E00A50DA60DA70DFF3E031DAD2D2708F30015
:100B6E002608F2002508F1002408F0000130F700F5
:100B7E003130F6002D30F5000030F4000A128A11E3
:100B8E0052267008FF3E83160313930094018715B7
:100B9E0007160800F501F601700871040319082EF6
:100BAE00F701F70AF11BE72D01300310F00DF10DDF
:100BBE00FF3E031DDC2D0130F4007408F707D92D1C
:100BCE0001300310F50DF60DFF3E031DE82D7108E3
:100BDE007302031DF42D70087202031CFD2D7008A4
:100BEE00F2027108031CF303F302751401300310B3
:100BFE00F10CF00CFF3E031DFE2D0130F702031D1C
:100C0E00E72D7608F1007508F00008000A128A1127
:100C1E007F240A128A11831203138501860188012B
:100C2E00FF308316031385000330860088010A12F5
:100C3E008A1103250A128A11003083120313A300AE
:100C4E000630A2001A30A1008030A0000A128A11CC
:100C5E009B250A128A1183120313B101B2010030CF
:100C6E000A128A11CC240A128A11A930F600003019
:100C7E00F7000A128A11B0260A128A117708831217
:100C8E000313A1007608A00003300A128A1122274E
:100C9E000A128A11362E0030FC000030FB000030A4
:100CAE00FA000030F900730872047104700403191D
:100CBE00A72EFD01FD0AF31B722E0130F800031062
:100CCE00F00DF10DF20DF30DF80B662E0130F8005C
:100CDE007808FD07622E0130F8000310F90DFA0DA9
:100CEE00FB0DFC0DF80B742E73087702031D892E75
:100CFE0072087602031D892E71087502031D892E56
:100D0E0070087402031C9A2E7008F4027108031CFA
:100D1E00710FF5027208031C720FF6027308031CA2
:100D2E00730FF702791401300310F30CF20CF10C6F
:100D3E00F00CFF3E031D9B2E0130FD02031D722E93
:100D4E007C08F3007B08F2007A08F1007908F000C5
:100D5E000800FD0101307702003003197602031CF2
:100D6E00C52E023077020030031976020318C52E05
:100D7E00A230F8007808FB00A330D12E01307702A4
:100D8E000030031976020318D82EA030F800780828
:100D9E00FB00A130F8007808FC007608F80078080F
:100DAE00FD000A128A118D240A128A117B08F8009E
:100DBE00F9017808F0007908F1000A128A119B24D3
:100DCE000A128A117D08F800F9017808F0007908F6
:100DDE00F1000A128A119B240A128A110A128A1130
:100DEE0094240A128A110A128A118D240A128A1167
:100DFE007C08F800F9017808F0007908F1000A1271
:100E0E008A119B240A128A110030F000F1000A1296
:100E1E008A11D7240A128A117008F8007808FA008D
:100E2E000A128A1194247A08F800F9017808F6005B
:100E3E007908F700080083120313B00026308400EF
:100E4E003330A2000408A3000A30A4002208840054
:100E5E0083130008A500A20A230884002508800039
:100E6E00A30AA40B2D2F1030F0002730F10021081B
:100E7E00F3002008F2000A128A11D1250A128A11F3
:100E8E00710883120313AF007008AE001030F0002B
:100E9E002730F1002108F3002008F2000A128A110F
:100EAE0034250A128A11710883120313AD007008DB
:100EBE00AC00E830F0000330F1002D08F3002C08F0
:100ECE00F2000A128A1134250A128A11710883124D
:100EDE000313AB007008AA00E830F0000330F100F5
:100EEE002D08F3002C08F2000A128A11D1250A12DD
:100EFE008A11710883120313AD007008AC006430C0
:100F0E00F0000030F1002B08F3002A08F2000A125C
:100F1E008A1134250A128A11710883120313A9004B
:100F2E007008A8006430F0000030F1002B08F300C8
:100F3E002A08F2000A128A11D1250A128A117108A2
:100F4E0083120313AB007008AA000A30F0000030C1
:100F5E00F1002908F3002808F2000A128A1134253C
:100F6E000A128A11710883120313A7007008A600D3
:100F7E000A30F0000030F1002908F3002808F200D2
:100F8E000A128A11D1250A128A11710883120313CB
:100F9E00A9007008A80006303002031CDA2F0530B5
:100FAE00A2002208B0003008031908003008A20081
:100FBE002207FE3E263E840083130008303E0A12AE
:100FCE008A11AC240A128A11013083120313B00263
:100FDE00DA2F83120313B301B401B501B601B701C1
:100FEE00B801B901BA01BB01BC0183010A128A1111
:020FFE000D2EB6
:02400E00723FFF
:00000001FF
