:060000000A128A11122809
:10000800FE00030EF0000408F1000A08F200831253
:1000180003137F08F3000A128A116E2B0A128A1141
:10002800152883120313C001C101C201C301C40111
:10003800C501C601C701C801C90183010A128A1195
:1000480025280A128A1109240A128A118312031315
:100058008501860187018801FF3083160313850017
:1000680003308600870188010A128A11A8220A1221
:100078008A110A128A11B1230A128A1183120313F0
:10008800BC01BD010130B8000030B900BA01BB01A4
:100098000A128A1105240A128A1103300A128A11D7
:1000A800C0230A128A110E300A128A116C220A120F
:1000B8008A11831603130C14831203131016901657
:1000C8008B170B170B308F00DC308E001014643048
:1000D80081008B16831603130115831203178D01F4
:1000E800831603178C130C14831203170C0883123E
:1000F8000313B400B5013408B500B4013408BE00D8
:100108003508BF000130831203178D0083160317CB
:100118008C130C14831203170C08831203133E0765
:10012800B4003F0803183F0AB5003408BE0035087C
:10013800BF000A128A11A1230A128A11831203131B
:10014800B601B701031086180314003003180130F4
:10015800B400B5013408BA003508BB0039083B06BD
:10016800031DB82838083A06031907298316031708
:100178008C1CBF28C1280130C22800308312031309
:10018800B4003A083B04031DCB280130CC280030CA
:1001980034050038031907293E08E83EBE003F0829
:1001A8000318013E033EBF00831203178D0183121B
:1001B80003133F08831203178C00831603178C134D
:1001C8000C158B1355308D00AA308D008C148C18AB
:1001D800EB288B170C110130831203178D00831243
:1001E80003133E08831203178C00831603178C131E
:1001F8000C158B1355308D00AA308D008C148C187B
:1002080003298B170C11831203133B08B9003A0812
:10021800B80040300A128A11C0230A128A118312C8
:1002280003133F08A4003E08A30005300A128A11F0
:1002380060210A128A11831203139F121F129F1141
:100248000A128A1147230A128A11750883120313A6
:10025800BD007408BC003D08B5003C08B40003109C
:10026800B50CB40C3408BC003508BD0000300A12C7
:100278008A11C0230A128A11831203133D08A400AD
:100288003C08A30003300A128A1160210A128A115D
:100298000030831203133D021E3003193C02031C75
:1002A80057290617A62800303D021E3003193C02C4
:1002B8000318A6280613A62883120313B3002930AF
:1002C80084004030A5000408A6000A30A7002508CD
:1002D800840083130008A800A50A260884002808BB
:1002E8008000A60AA70B6B291030F4002730F50010
:1002F8002408F7002308F6000A128A112E220A128F
:100308008A11750883120313B2007408B100103003
:10031800F4002730F5002408F7002308F6000A1235
:100328008A1115230A128A11750883120313B00063
:100338007408AF00E830F4000330F5003008F70027
:100348002F08F6000A128A1115230A128A11750855
:1003580083120313AE007408AD00E830F4000330D4
:10036800F5003008F7002F08F6000A128A112E222D
:100378000A128A11750883120313B0007408AF00BB
:100388006430F4000030F5002E08F7002D08F60060
:100398000A128A1115230A128A1175088312031387
:1003A800AC007408AB006430F4000030F5002E088F
:1003B800F7002D08F6000A128A112E220A128A1155
:1003C800750883120313AE007408AD000A30F400F8
:1003D8000030F5002C08F7002B08F6000A128A11E5
:1003E80015230A128A11750883120313AA007408C8
:1003F800A9000A30F4000030F5002C08F7002B089B
:10040800F6000A128A112E220A128A11750883121E
:100418000313AC007408AB0006303302031C182A1F
:100428000530A5002508B300330803190800330870
:10043800A5002507FE3E293E840083130008303EB0
:100448000A128A11CD230A128A110130831203136A
:10045800B302182A83120313A001A10174087504BA
:100468000319672AA201A20AF51B462A01300310C4
:10047800F40DF50DFF3E031D3B2A0130F800780806
:10048800A207382A01300310A00DA10DFF3E031D5D
:10049800472A75087702031D532A74087602031C3D
:1004A8005C2A7408F6027508031CF703F702201487
:1004B80001300310F50CF40CFF3E031D5D2A0130DA
:1004C800A202031D462A2108F5002008F4000800AE
:1004D80083120313A200220884000A128A118C23B3
:1004E8000A128A11003A03190800220884000A1225
:1004F8008A118C230A128A110A3A03198D2A2208B2
:1005080084000A128A118C230A128A110D3A031DDB
:10051800932A0A128A11EF230A128A11A12A831236
:100528000313220884000A128A118C230A128A11E2
:100538000A128A11CD230A128A1101308312031379
:10054800A1002108A2076F2A01300A128A11E423A8
:100558000A128A11623083120313A1006530A000C9
:10056800A00BB42AA10BB42A383083120313A000BD
:100578002008F50000300A128A11E0220A128A11B6
:10058800063083120313A0002008F50000300A1279
:100598008A11E0220A128A110C3083120313A00078
:1005A8002008F50000300A128A11E0220A128A1186
:1005B8000A128A11F8230800F80078080A128A112A
:1005C800D9230A128A1175080A128A11FF230A12FE
:1005D8008A1101300A128A11E4230A128A1107309B
:1005E800F7007D30F600F60BF72AF70BF72A0030F4
:1005F8000A128A11E4230A128A110D30F700FB301F
:10060800F600F60B052BF70B052B0A2B00300A1208
:100618008A11D9230A128A1100300A128A11FF237B
:100628000800740875040319422BF901F90AF51B2F
:10063800292B01300310F40DF50DFF3E031D1E2B71
:100648000130F8007808F9071B2B75087702031D9D
:100658002F2B74087602031C372B7408F6027508D2
:10066800031CF703F70201300310F50CF40CFF3EEE
:10067800031D382B0130F902031D292B7708F500DB
:100688007608F4000800F801F9010830F600F60BC6
:100698004B2B831203131F151F19502B1E08F6002E
:1006A800F7017608F700F6017608F8007708F900F0
:1006B800831603131E087807F60079080318790AC9
:1006C800F7007608F8007708F9007908F500780847
:1006D800F40008000C1C812B861B742B8617772BC3
:1006E800861F772B86130B308F00DC308E000C10A2
:1006F8000B1D812B653081000B117308FF007208F8
:100708008A0071088400700E8300FE0E7E0E0900B8
:1007180003308A000408840A820700340134003454
:100728000A34003464340034E83403341034273491
:1007380025346434003443340034403083160313C2
:10074800920083120313921012109B0112159D152B
:100758001D159D101D109B010800831203139F1780
:100768001F13831603139F179F111F119F101F102C
:10077800831203131F10080083120313A00020081C
:100788008038F9007908F50000300A128A11E02251
:10079800080083120313A0002008F9007908F50067
:1007A80001300A128A11E0220800F400741CE02BC0
:1007B8008312031306160800831203130612080097
:1007C800F400741CEB2B83120313861608008312A3
:1007D800031386120800C030F9007908F5000030CC
:1007E8000A128A11E0220800F501F50A00300A12FF
:1007F8008A11E0220800F4007408831203138800A9
:0C0808000800831203131F1408000800EE
:02400E00723FFF
:00000001FF
