:060000000A128A11122809
:10000800FE00030EF0000408F1000A08F200831253
:1000180003137F08F3000A128A11062C0A128A11A8
:10002800152883120313C401C501C601C701C801FD
:10003800C901CA01CB01CC01CD0183010A128A1181
:1000480025288312031385018601870188018316F9
:100058000313850103308600870188010A128A117B
:1000680030240A128A1183120313B601B701B801AA
:10007800B901C001C101BE01BF010130BA000030A1
:10008800BB00C201C3010130BC000030BD000A1230
:100098008A1138230A128A110A128A111A240A129A
:1000A8008A1101300A128A11FC220A128A110A12D4
:1000B8008A1123240A128A11013083120313B60706
:1000C8000318B70A0030B7070310061803140030E6
:1000D80003180130B400B5013408BE003508BF006C
:1000E800031086180314003003180130B400B5015A
:1000F8003408C2003508C300033040064104031D1C
:100108008E280A128A1123240A128A1183120313D1
:10011800C001C1013F083B06031D94283E083A066A
:100128000319A9283E083F04031DA9280A128A11A9
:1001380023240A128A11831203134008013EC000C7
:1001480041080318013E003EC1003F08BB003E08BD
:10015800BA00972900300A128A11D7230A128A1185
:100168002E300A128A11FC220A128A1106300A124B
:100178008A11D7230A128A11831203133708A4009D
:100188003608A30003300A128A11B0210A128A1114
:1001980040300A128A11D7230A128A1135300A12FE
:1001A8008A11FC220A128A1145300A128A11D723B1
:1001B8000A128A11831203133908A4003808A3000D
:1001C80005300A128A11B0210A128A11A729061FBE
:1001D800F52800300A128A11D7230A128A111E3014
:1001E800FE28061B032900300A128A11D7230A1297
:1001F8008A110C300A128A11FC220A128A118312FF
:10020800031343083D06031D0B2942083C06031946
:10021800922942084304031D9229061F28290A121D
:100228008A1123240A128A1100300A128A11D7234C
:100238000A128A110C300A128A11FC220A128A1137
:100248008312031306139229061B92290A128A1194
:1002580023240A128A1100300A128A11D7230A129B
:100268008A111E300A128A11FC220A128A1183127C
:10027800031306179229861F492900300A128A118A
:10028800D7230A128A1126305229861B5729003093
:100298000A128A11D7230A128A1115300A128A11F2
:1002A800FC220A128A118312031343083D06031D18
:1002B8005F2942083C060319922942084304031D9A
:1002C8009229861F7C290A128A1123240A128A116C
:1002D80000300A128A11D7230A128A1115300A121D
:1002E8008A11FC220A128A11831203138613922997
:1002F800861B92290A128A1123240A128A110030B5
:100308000A128A11D7230A128A1126300A128A1170
:10031800FC220A128A118312031386174308BD00B0
:100328004208BC00A7294108003A03199C29A729BB
:100338004008003A0319AE28013A0319EB28033A9A
:1003480003193F29A729013083120313B80703189B
:10035800B90A0030B907602883120313B3002930A3
:1003680084004430A5000408A6000A30A700250828
:10037800840083130008A800A50A2608840028081A
:100388008000A60AA70BBB291030F4002730F5001F
:100398002408F7002308F6000A128A11BE220A125E
:1003A8008A11750883120313B2007408B100103063
:1003B800F4002730F5002408F7002308F6000A1295
:1003C8008A11A5230A128A11750883120313B00033
:1003D8007408AF00E830F4000330F5003008F70087
:1003E8002F08F6000A128A11A5230A128A11750825
:1003F80083120313AE007408AD00E830F400033034
:10040800F5003008F7002F08F6000A128A11BE22FC
:100418000A128A11750883120313B0007408AF001A
:100428006430F4000030F5002E08F7002D08F600BF
:100438000A128A11A5230A128A1175088312031356
:10044800AC007408AB006430F4000030F5002E08EE
:10045800F7002D08F6000A128A11BE220A128A1124
:10046800750883120313AE007408AD000A30F40057
:100478000030F5002C08F7002B08F6000A128A1144
:10048800A5230A128A11750883120313AA00740897
:10049800A9000A30F4000030F5002C08F7002B08FA
:1004A800F6000A128A11BE220A128A1175088312EE
:1004B8000313AC007408AB0006303302031C682A2F
:1004C8000530A5002508B3003308031908003308D0
:1004D800A5002507FE3E293E840083130008303E10
:1004E8000A128A11E4230A128A11013083120313B3
:1004F800B302682A02308A000408840A820700349A
:1005080042346F346F34743469346E3467342E3443
:100518002E342E3400344C344534443431343A3497
:100528004F344634463400344C3445344434323441
:100538003A344F344634463400344C344534443429
:1005480031343A344F344E3400344C344534443426
:1005580032343A344F344E34003443346F347534C3
:100568006E3474343A340034543469346D34653438
:100578003A34003483120313A001A10174087504EE
:100588000319F72AA201A20AF51BD62A0130031083
:10059800F40DF50DFF3E031DCB2A0130F800780855
:1005A800A207C82A01300310A00DA10DFF3E031DAC
:1005B800D72A75087702031DE32A74087602031CFC
:1005C800EC2A7408F6027508031CF703F7022014D6
:1005D80001300310F50CF40CFF3E031DED2A013029
:1005E800A202031DD62A2108F5002008F4000800FD
:1005F80083120313A200220884000A128A117E22A1
:100608000A128A11003A03190800220884000A1203
:100618008A117E220A128A110A3A03191D2B22080E
:1006280084000A128A117E220A128A110D3A031DC9
:10063800232B0A128A1111240A128A11312B8312D0
:100648000313220884000A128A117E220A128A11D0
:100658000A128A11E4230A128A1101308312031341
:10066800A1002108A207FF2A01300A128A11FB23E0
:100678000A128A11623083120313A1006530A000A8
:10068800A00B442BA10B442B383083120313A0007A
:100698002008F50000300A128A1170230A128A1104
:1006A800063083120313A0002008F50000300A1258
:1006B8008A1170230A128A110C3083120313A000C6
:1006C8002008F50000300A128A1170230A128A11D4
:1006D8000A128A1123240800F80078080A128A11DD
:1006E800F0230A128A1175080A128A112A240A129A
:1006F8008A1101300A128A11FB230A128A11073063
:10070800F7007D30F600F60B872BF70B872B0030B0
:100718000A128A11FB230A128A110D30F700FB30E6
:10072800F600F60B952BF70B952B9A2B00300A1237
:100738008A11F0230A128A1100300A128A112A2417
:100748000800740875040319D22BF901F90AF51B7E
:10075800B92B01300310F40DF50DFF3E031DAE2B30
:100768000130F8007808F907AB2B75087702031DEC
:10077800BF2B74087602031CC72B7408F602750891
:10078800031CF703F70201300310F50CF40CFF3ECD
:10079800031DC82B0130F902031DB92B7708F5009A
:1007A8007608F400080083120313A000200880389C
:1007B800F9007908F50000300A128A117023080040
:1007C80083120313A0002008F9007908F50001300E
:1007D8000A128A1170230800F400741CF72B831284
:1007E8000313061608008312031306120800F40008
:1007F800741C022C83120313861608008312031339
:10080800861208007308FF0072088A0071088400C5
:10081800700E8300FE0E7E0E0900C030F9007908C4
:10082800F50000300A128A11702308000230F9001E
:100838007908F50000300A128A1170230800F501C2
:10084800F50A00300A128A1170230800F4007408AF
:0A0858008312031388000800080053
:02400E00723FFF
:00000001FF
