:060000000A128A11122809
:10000800FE00030EF0000408F1000A08F200831253
:1000180003137F08F3000A128A11A12A0A128A110F
:10002800152883120313C101C201C301C401C5010C
:10003800C601C701C801C901CA0183010A128A1190
:100048009F29831203132E08B2002F08B30030082B
:10005800B4003108B50006300310B20DB30DB40D6D
:10006800B50DFF3E031D30283508A3003408A20053
:100078003308A1003208A0000030B6002D30B700C8
:100088003130B8000130B9002E08BA002F08BB0083
:100098003008BC003108BD0006300310BA0DBB0D96
:1000A800BC0DBD0DFF3E031D5128BA09BB09BC0993
:1000B800BD09BA0A0319BB0A0319BC0A0319BD0A08
:1000C8003A08B6073B0803183B0F6B286C28B7079C
:1000D8003C0803183C0F71287228B8073D0803181C
:1000E8003D0AB9073908A7003808A6003708A5004F
:1000F8003608A4000A128A1110210A128A118312E2
:1001080003132108F6002008F500013076020030BC
:1001180003197502031CF5282E08B2002F08B30036
:100128003008B4003108B50004300310B20DB30D27
:10013800B40DB50DFF3E031D99283508A3003408FA
:10014800A2003308A1003208A0000030B6002D300C
:10015800B7003130B8000130B9002E08BA002F08B6
:10016800BB003008BC003108BD0004300310BA0DD4
:10017800BB0DBC0DBD0DFF3E031DBA28BA09BB0956
:10018800BC09BD09BA0A0319BB0A0319BC0A031939
:10019800BD0A3A08B6073B0803183B0FD428D528F0
:1001A800B7073C0803183C0FDA28DB28B8073D08D6
:1001B80003183D0AB9073908A7003808A600370808
:1001C800A5003608A4000A128A1110210A128A1101
:1001D800831203132108F6002008F5008316031381
:1001E800181501307602003003197502031808004B
:1001F800831603138C1675089900181283120313BB
:1002080098178316031387170717831203131816F3
:10021800831603139816080083120313A901A31F5A
:100228002229A009A109A209A309A00A0319A10A60
:100238000319A20A0319A30AA901A90AA71F3329A6
:10024800A409A509A609A709A40A0319A50A031957
:10025800A60A0319A70A0130F4007408A906003099
:10026800AD000030AC000030AB000030AA0023081D
:1002780022042104200403198829A801A80AA31B21
:1002880053290130F4000310A00DA10DA20DA30DF8
:10029800F40B47290130F4007408A80743290130FA
:1002A800F4000310AA0DAB0DAC0DAD0DF40B5529E0
:1002B80023082702031D6A2922082602031D6A292A
:1002C80021082502031D6A2920082402031C7B2912
:1002D8002008A4022108031C210FA5022208031CE0
:1002E800220FA6022308031C230FA7022A14013099
:1002F8000310A30CA20CA10CA00CFF3E031D7C292B
:100308000130A802031D5329290803199629AA09AF
:10031800AB09AC09AD09AA0A0319AB0A0319AC0A5F
:100328000319AD0A2D08A3002C08A2002B08A10070
:100338002A08A00008000A128A11C1220A128A118A
:10034800831203138501860187018801FF30831614
:100358000313850003308600870188010A128A1179
:10036800E6210A128A110A128A116F220A128A11C8
:10037800003083120313B1000030B0002530AF0005
:100388008030AE000A128A1125200A128A11013023
:100398000A128A1153220A128A1106300A128A1185
:1003A80053220A128A11073083120313C0005830EF
:1003B800BF005930BE00BE0BDF29BF0BDF29C00BC1
:1003C800DF29CB2901300A128A1196220A128A11D2
:1003D800623083120313A1006530A000A00BF2293C
:1003E800A10BF229383083120313A0002008F5006E
:1003F80000300A128A111E220A128A11063083124C
:100408000313A0002008F50000300A128A111E22EA
:100418000A128A110C3083120313A0002008F50079
:1004280000300A128A111E220A128A110A128A112F
:10043800B4220800F80078080A128A118B220A12DE
:100448008A1175080A128A11BB220A128A11013010
:100458000A128A1196220A128A110730F7007D3093
:10046800F600F60B352AF70B352A00300A128A11E6
:1004780096220A128A110D30F700FB30F600F60BAF
:10048800432AF70B432A482A00300A128A118B2282
:100498000A128A1100300A128A11BB220800F600DB
:1004A800760884000A128A117E220A128A11003AFA
:1004B80003190800760884000A128A117E220A129B
:1004C8008A110A128A11AC220A128A110130F50027
:1004D8007508F607542A831203139F171F138316F0
:1004E80003139F179F111F119F101F1083120313CF
:1004F8001F10080002308A000408840A82070034AA
:10050800543445345334543400340A340034F40039
:10051800741C922A8312031306160800831203130D
:1005280006120800F400741C9D2A83120313861611
:10053800080083120313861208007308FF0072086C
:100548008A0071088400700E8300FE0E7E0E09007A
:10055800F400831203130C1EAD2A740899000800D6
:10056800F501F50A00300A128A111E220800F4006B
:0C057800740883120313880008000800B8
:02400E00723FFF
:00000001FF
