:060000000A128A110C280F
:10000800FE00030EF0000A08F1000A128A11CA293C
:100018000A128A110F2883120313B101B201B30126
:10002800B401B501B601B701B801B901BA0183013C
:100038000A128A111F280A128A11D5210A128A1156
:100048008501860187018801FF30831685000F30FE
:100058008600870188010A128A1155210A128A111D
:10006800031006190314003003180130A000A10181
:100078002008A5002108A6000310861903140030E3
:1000880003180130A000A1012008A7002108A8003A
:10009800031086190314003003180130A000A101D1
:1000A8002008A9002108AA000310861803140030AC
:1000B80003180130A000A1012008A3002108A40012
:1000C8000A128A11BA210A128A1101300A128A11F7
:1000D800EA200A128A110310861803140030031844
:1000E8000130A000A1012008AB002108AC002408C1
:1000F8002C06031D812823082B06031999282B0891
:100108002C04031D99280616073083120313A20036
:100118005830A1005930A000A00B9028A10B9028BE
:10012800A20B9028831203130612031086190314D6
:10013800003003180130A000A1012008AF002108F9
:10014800B00028083006031DAB2827082F0603191E
:10015800B1283008AA002F08A9003008A8002F08E5
:10016800A700031006190314003003180130A0007B
:10017800A1012008AD002108AE0026082E06031DA7
:10018800C72825082D060319E5282D032E04031D6D
:10019800CF282908D02829032A04031DE528061694
:1001A800073083120313A2005830A1005930A00071
:1001B800A00BDC28A10BDC28A20BDC28831203137C
:1001C80006122E08A6002D08A5006F28FA007A0846
:1001D80084000A128A1186210A128A11003A031928
:1001E80008007A0884000A128A1186210A128A11E4
:1001F8000A3A031909297A0884000A128A11862101
:100208000A128A110D3A031D0F290A128A11B12107
:100218000A128A111B297A0884000A128A11862177
:100228000A128A110A128A11A7210A128A110130A8
:10023800F9007908FA07EB28F60076080A128A11FD
:1002480091210A128A1173080A128A11D1210A12FD
:100258008A1101300A128A119C210A128A11073068
:10026800F5007D30F400F40B3729F50B3729003001
:100278000A128A119C210A128A110D30F500FB30EE
:10028800F400F40B4529F50B45294A2900300A12D8
:100298008A1191210A128A1100300A128A11D12179
:1002A800080001300A128A119C210A128A11623050
:1002B800F8006530F700F70B5F29F80B5F29642910
:1002C8003830F7007708F30000300A128A1120212D
:1002D8000A128A110630F7007708F30000300A1274
:1002E8008A1120210A128A110C30F7007708F300CE
:1002F80000300A128A1120210A128A110A128A1160
:10030800C321080001308A000408840A82070034E7
:1003180062346F346F3474340034F200721C9829DC
:10032800831203130616080083120313061208002B
:10033800F200721CA3298312031386160800831285
:10034800031386120800F8007808F7007708F3000E
:1003580001300A128A1120210800C030F7007708FE
:10036800F30000300A128A11202108000230F70039
:100378007708F30000300A128A1120210800F301DF
:10038800F30A00300A128A112021080071088A0035
:10039800700E8300FE0E7E0E0900F20072088800BF
:0403A8000800080041
:02400E00723FFF
:00000001FF
